:020000040800F2
:100000000000022089010008350200083D020008B6
:100010004D020008550200085D02000800000000C3
:100020000000000000000000000000006502000861
:100030006D020008000000006B080008F90C0008C1
:100040002D0200082D0200082D0200082D020008D4
:100050002D0200082D0200082D0200082D020008C4
:100060002D0200082D0200082D0200082D020008B4
:100070002D0200082D0200082D0200082D020008A4
:100080002D0200082D0200082D0200082D02000894
:100090002D0200082D0200082D0200082D02000884
:1000A0002D0200082D0200082D0200082D02000874
:1000B0002D0200082D0200082D0200082D02000864
:1000C0002D0200082D0200082D0200082D02000854
:1000D0002D0200082D0200082D0200082D02000844
:1000E0002D0200082D0200082D0200082D02000834
:1000F0002D0200082D0200082D0200082D02000824
:100100002D0200082D0200082D0200082D02000813
:100110002D0200082D0200082D0200082D02000803
:100120002D0200082D0200082D0200082D020008F3
:100130002D0200082D0200082D0200082D020008E3
:100140002D0200082D0200082D0200082D020008D3
:100150002D0200082D0200082D0200082D020008C3
:100160002D0200082D0200082D0200082D020008B3
:100170002D0200082D0200082D0200082D020008A3
:100180002D0200082D02000880B584B000AF40F2B7
:100190004003C2F20003BB6040F62833C2F2000302
:1001A0007B60BB683B6007E03B684FF000021A6071
:1001B0003B6803F104033B607A683B689A42F3D8DA
:1001C00000F0A6F900F060F8F86000F0E9F9F868CE
:1001D00000F00EFA80B584B000AF40F6B873C0F6F8
:1001E0000003FB6040F20003C2F20003BB6040F278
:1001F0004003C2F200037B60BB683B600BE0FB681E
:100200001A683B681A603B6803F104033B60FB68B3
:1002100003F10403FB607A683B689A42EFD800F070
:10022000EDF907F11007BD4680BD00BF80B400AFF7
:10023000FEE700BF80B400AFFEE700BF80B4C3B0EC
:1002400000AF4FF00003C7F80431FEE780B400AF01
:10025000FEE700BF80B400AFFEE700BF80B400AF90
:10026000FEE700BF80B400AFFEE700BF80B400AF80
:10027000FEE700BF80B400AFFEE700BF80B400AF70
:04028000FEE700BFD6
:04028400D501000898
:1002880080B582B002AF4FF0070300934FF480733C
:10029800019340F2CD30C0F6000040F27C01C2F27A
:1002A80000014FF0000240F20003C2F2000300F028
:1002B8007BFD4FF0080300934FF48073019340F2E5
:1002C8000140C0F6000040F27C41C2F200014FF04C
:1002D800010240F20803C2F2000300F065FD4FF08E
:1002E800080300934FF48073019340F23540C0F641
:1002F800000040F27C61C2F200014FF0030240F2BC
:100308001003C2F2000300F04FFD4FF00803009302
:100318004FF48073019340F26140C0F6000040F250
:100328007C51C2F200014FF0090240F21803C2F2F8
:10033800000300F039FD4FF0080300934FF4807379
:10034800019340F28D40C0F6000040F27C71C2F289
:1003580000014FF0070240F22003C2F2000300F050
:1003680023FD4FF0080300934FF48073019340F28C
:10037800B940C0F6000040F27C21C2F200014FF003
:10038800020240F22803C2F2000300F00DFD4FF014
:10039800080300934FF48073019340F2E540C0F6E0
:1003A800000040F27C31C2F200014FF00C0240F232
:1003B8003003C2F2000300F0F7FC44F2A01000F092
:1003C80027FAFEE780B483B000AF786040F260039C
:1003D800C2F200034FF0FA021A6040F26403C2F25C
:1003E80000034FF0E1021A6040F26803C2F2000312
:1003F8004FF4AF721A60E9E780B483B000AF786059
:1004080040F25403C2F200034FF064021A6040F253
:100418005803C2F200034FF096021A6040F25C03E0
:10042800C2F200034FF0AF021A60E9E780B483B06C
:1004380000AF786040F25003C2F200031B6803F17A
:10044800010240F25003C2F200031A6007F10C07E0
:10045800BD4680BC704700BF80B483B000AF7860F1
:1004680040F24C03C2F200031B6803F1010240F2A0
:100478004C03C2F200031A6007F10C07BD4680BCAA
:10048800704700BF80B483B000AF786040F2480383
:10049800C2F200031B6803F1010240F24803C2F2F2
:1004A80000031A6007F10C07BD4680BC704700BF07
:1004B80080B483B000AF786040F24403C2F2000316
:1004C8001B6803F1010240F24403C2F200031A6000
:1004D80007F10C07BD4680BC704700BF80B483B0ED
:1004E80000AF786040F24003C2F200031B6803F1DA
:1004F800010240F24003C2F200031A6007F10C0740
:10050800BD4680BC704700BF80B582B000AF40F2E6
:100518008822C0F6000240F28423C0F60003D31AF2
:100528004FEAA3033B604FF000037B600BE040F20F
:100538008423C0F600037A6853F8223098477B6812
:1005480003F101037B607A683B689A42EFD340F27B
:100558008822C0F6000240F28823C0F60003D31AAE
:100568004FEAA3033B604FF000037B600BE040F2CF
:100578008823C0F600037A6853F8223098477B68CE
:1005880003F101037B607A683B689A42EFD307F175
:100598000807BD4680BD00BF80B582B000AF40F2FD
:1005A8008822C0F6000240F28823C0F60003D31A5E
:1005B8004FEAA3033B603B687B600DE07B6803F177
:1005C800FF3240F28823C0F6000353F822309847E0
:1005D8007B6803F1FF337B607B68002BEED107F16A
:1005E8000807BD4680BD00BF80B483B000AF786007
:1005F800FEE700BF80B500AF4FF46053C4F20203BA
:100608004FF46052C4F20202126842F001021A600A
:100618004FF46053C4F202034FF000029A604FF4A3
:100628006053C4F202034FF46052C4F2020212682B
:1006380022F0847222F480321A604FF46053C4F2BC
:10064800020343F21002C2F200425A604FF46053B0
:10065800C4F202034FF46052C4F20202126822F498
:1006680080221A604FF46053C4F202034FF0000274
:10067800DA6000F009F84FF46D43CEF200034FF052
:1006880000629A6080BD00BF80B483B000AF4FF0B5
:1006980000037B604FF000033B604FF46053C4F2EB
:1006A80002034FF46052C4F20202126842F480322C
:1006B8001A604FF46053C4F202031B6803F400335A
:1006C8003B607B6803F101037B603B68002B03D12F
:1006D8007B68B3F5A04FECD14FF46053C4F202032A
:1006E8001B6803F40033002B03D04FF001033B6079
:1006F80002E04FF000033B603B68012B40F0828032
:100708004FF46053C4F202034FF46052C4F2020281
:10071800126C42F080521A644FF4E043C4F20003B2
:100728004FF4E042C4F20002126842F440421A60F8
:100738004FF46053C4F202034FF46052C4F2020251
:1007480092689A604FF46053C4F202034FF4605207
:10075800C4F20202926842F400429A604FF4605375
:10076800C4F202034FF46052C4F20202926842F4E7
:10077800A0529A604FF46053C4F2020345F2194242
:10078800C0F240725A604FF46053C4F202034FF44F
:100798006052C4F20202126842F080721A6000BF0E
:1007A8004FF46053C4F202031B6803F00073002B7C
:1007B800F6D04FF47053C4F2020340F205721A6087
:1007C8004FF46053C4F202034FF46052C4F20202C1
:1007D800926822F003029A604FF46053C4F2020355
:1007E8004FF46052C4F20202926842F002029A6028
:1007F80000BF4FF46053C4F202039B6803F00C037C
:10080800082BF6D107F10C07BD4680BC704700BF26
:1008180072B634490A6842F400720A60324900220A
:1008280041F8042B0860043903220A602F49FF208D
:10083800087062B67047EFF3108072B6704780F3A5
:10084800108862B6704772B629485FF0805101601F
:1008580062B6704772B626485FF08051016062B692
:1008680070471EF0040F08BF00F019B8214800684F
:10087800016811F0010F18BF00F021B81E48006888
:10088800EFF3098121E9F00F81611A480068816955
:10089800B1E8F00F81F309884EF0040E7047022486
:1008A80084F31488BFF36F8F12480068016821F041
:1008B80001010160816981F30988FFF7EDBF0E48E6
:1008C8000068EFF3098121E9F00F816109480068A8
:1008D800016821F001010160816981F30988FFF74E
:1008E800DBBF000014ED00E010E000E022ED00E0C6
:1008F80004ED00E0700000206C00002080B483B09C
:1009080000AF786040F67C03C2F200039B7A072BA5
:1009180002D94FF007033AE040F67C03C2F2000325
:100928005B687A681A6040F67C03C2F200035B6871
:100938009A6840F67C03C2F200035A6040F67C03D2
:10094800C2F200039B7A03F10103DAB240F67C039A
:10095800C2F200039A7240F67C03C2F200035B7A8B
:1009680003F101024FF00703C8F200031340002B04
:1009780005DA03F1FF3363F0070303F10103DAB289
:1009880040F67C03C2F200035A724FF00003184687
:1009980007F10C07BD4680BC704700BF80B485B026
:1009A80000AF786040F67C03C2F200039B7A002B0C
:1009B80002D14FF008033AE040F67C03C2F200038C
:1009C8001B681B68FB6040F67C03C2F200031B68CF
:1009D8009A6840F67C03C2F200031A6040F67C0372
:1009E800C2F200039B7A03F1FF33DAB240F67C03CC
:1009F800C2F200039A7240F67C03C2F200031B7A2B
:100A080003F101024FF00703C8F200031340002B63
:100A180005DA03F1FF3363F0070303F10103DAB2E8
:100A280040F67C03C2F200031A724FF00003184626
:100A380007F11407BD4680BC704700BF80B485B07D
:100A480000AF03463960FB7140F67C03C2F2000335
:100A58001B7AFA799A420DD240F67C03C2F200035F
:100A68005B7AFA799A4205D94FF00003FB604FF0A0
:100A78000B030EE0FA7913464FEA43039B184FEA3B
:100A8800830340F68802C2F200029B18FB604FF015
:100A98000003184607F11407BD4680BC704700BF25
:100AA80080B485B000AF0346FB714FF00003FB73C1
:100AB80040F67C03C2F200031B7AFA799A420AD202
:100AC80040F67C03C2F200035B7AFA799A4202D9B3
:100AD8004FF00B037AE0FB79FB733AE0F97BFB7B81
:100AE80003F101024FF00703C8F200031340002B83
:100AF80005DA03F1FF3363F0070303F10103184636
:100B080040F68802C2F2000203464FEA43031B186C
:100B18004FEA8303D318186840F68802C2F200022D
:100B28000B464FEA43035B184FEA8303D318186058
:100B3800FB7B03F101024FF00703C8F200031340E7
:100B4800002B05DA03F1FF3363F0070303F1010318
:100B5800FB7340F67C03C2F200035B7AFA7B9A428D
:100B6800BCD940F67C03C2F200035B685A6840F6C1
:100B78007C03C2F200035A6040F67C03C2F2000311
:100B88005B7A03F1FF33DAB240F67C03C2F200036A
:100B98005A7240F67C03C2F200035B7A072B06D92F
:100BA80040F67C03C2F200034FF007025A7240F687
:100BB8007C03C2F200039B7A03F1FF33DAB240F6FA
:100BC8007C03C2F200039A724FF00003184607F143
:100BD8001407BD4680BC704780B584B000AF4FF0A5
:100BE8000003BB604FF000037B604FF00003FB7312
:100BF8004FF00003BB7340F67C03C2F200039B7AFC
:100C0800002B5ED040F67C03C2F200031B7AFB7314
:100C18002EE0FFF710FE7860FB7B1846B968FFF7F7
:100C28000DFF40F27003C2F200031B68002B06D1CF
:100C380040F27003C2F20003BA681A6011E040F291
:100C48007003C2F200031B685A7BBB685B7B9A4245
:100C580007D940F27003C2F20003BA681A60FB7B3E
:100C6800BB73FB7B03F10103FB737868FFF7E7FDB8
:100C780040F67C03C2F200035B7AFA7B9A42C8D33F
:100C880040F67C03C2F200035B7ABA7B9A4203D136
:100C9800B868FFF783FE03E0BB7B1846FFF700FF49
:100CA800FFF7C9FD786040F27003C2F200031B68C9
:100CB8004FF00302DA73FFF7C6FD7868FFF7BFFD50
:100CC80011E040F26C03C2F200031B684FF003020C
:100CD800DA7340F26C03C2F200031A6840F2700340
:100CE800C2F200031A6007F11007BD4680BD00BFBD
:100CF80080B582B000AF4FF000037B604FF0000377
:100D08003B60FFF798FD386040F27403C2F20003BD
:100D18001B6803F1010240F27403C2F200031A6077
:100D28003868FFF78CFD40F69973C0F600037B60C6
:100D380040F26C03C2F200031B684FF00102DA7341
:100D480040F26C03C2F200031A6840F27403C2F264
:100D580000031B6893601DE07B68DB7B002B16D0CB
:100D68007B689A6840F27403C2F200031B689A42D7
:100D78000DD07B684FF00002DA7340F27403C2F2C0
:100D880000031A687B689A607868FFF7B7FD7B688C
:100D98001B6A7B607B68002BDED1FFF71DFF07F124
:100DA8000807BD4680BD00BF80B489B000AFF860B9
:100DB800B9603B601346FB7140F6E813C2F20003CA
:100DC800FB6140F6E813C2F200037B614FF00003B9
:100DD800FB7697F82830202B02D94FF00503CCE09A
:100DE8004FF00003FB7651E0FB691B69002B36D1FD
:100DF800FA68FB69DA61FB6A4FEA930303F1FF3390
:100E08004FEA8303BA68D218FB699A61FB791F2BF2
:100E180002D94FF00303B0E0FB7903F01F03DAB205
:100E2800FB695A73FB693A685A61FB69FA7E1A735F
:100E3800FB694FF000029A60FB694FF001025A60AB
:100E4800FB694FF00002DA73FB694FF0FF021A6189
:100E5800FB691B6843F00102FB691A6019E0FA7E1E
:100E680013464FEA83039B184FEAC30340F6E81280
:100E7800C2F200029B18FB61FB7E062B02D94FF0E1
:100E880002037AE0FB7E03F10103FB76FB7E072B6E
:100E9800AAD93D4BFB61FB691B69002B49D1FA6953
:100EA80040F6AD73C0F60003D361FB69374A9A6117
:100EB800FB694FF020025A73FA6940F23803C2F214
:100EC80000035361FB694FF008021A73FB694FF086
:100ED80000029A60FB694FF001025A60FB694FF00B
:100EE8000002DA73FB694FF0FF021A61FA7E1346BB
:100EF8004FEA83039B184FEAC30340F6E812C2F295
:100F080000029A18FB691A62FB691B6AFB61FB699C
:100F18001D4A5A62FB694FF000021A62FB691B689E
:100F280043F00102FB691A6025E0FB691B6AFB615B
:100F380000E000BFFB691B6A002BF6D1FB7E03F1C2
:100F4800FF3213464FEA83039B184FEAC30340F668
:100F5800E812C2F200029A18FB691A62FB691B6A5E
:100F68007B617B69FA695A62FB691B6AFB61FB69F1
:100F78004FF000021A624FF00003184607F12407E9
:100F8800BD4680BC704700BF000B0020E40900206C
:100F980080B400AF024B1846BD4680BC704700BF06
:100FA800000B002080B483B000AF7860FEE700BF7C
:100FB8005461736B547279005461736B5472793253
:100FC8005461736B547279335461736B547279340E
:100FD8005461736B547279355461736B54727936FA
:100FE8005461736B547279375461736B49646C65DF
:040000050800018965
:00000001FF
