:020000040800F2
:100000000000022089010008350200083D020008B6
:10001000450200084D0200085502000800000000DB
:100020000000000000000000000000005D02000869
:1000300065020008000000005F090008F50D0008D7
:100040002D0200082D0200082D0200082D020008D4
:100050002D0200082D0200082D0200082D020008C4
:100060002D0200082D0200082D0200082D020008B4
:100070002D0200082D0200082D0200082D020008A4
:100080002D0200082D0200082D0200082D02000894
:100090002D0200082D0200082D0200082D02000884
:1000A0002D0200082D0200082D0200082D02000874
:1000B0002D0200082D0200082D0200082D02000864
:1000C0002D0200082D0200082D0200082D02000854
:1000D0002D0200082D0200082D0200082D02000844
:1000E0002D0200082D0200082D0200082D02000834
:1000F0002D0200082D0200082D0200082D02000824
:100100002D0200082D0200082D0200082D02000813
:100110002D0200082D0200082D0200082D02000803
:100120002D0200082D0200082D0200082D020008F3
:100130002D0200082D0200082D0200082D020008E3
:100140002D0200082D0200082D0200082D020008D3
:100150002D0200082D0200082D0200082D020008C3
:100160002D0200082D0200082D0200082D020008B3
:100170002D0200082D0200082D0200082D020008A3
:100180002D0200082D02000880B584B000AF40F2B7
:100190000403C2F20003BB6040F62073C2F2000306
:1001A0007B60BB683B6007E03B684FF000021A6071
:1001B0003B6803F104033B607A683B689A42F3D8DA
:1001C00000F020FA00F0DAF9F86000F063FAF8685D
:1001D00000F088FA80B584B000AF41F2E843C0F681
:1001E0000003FB6040F20003C2F20003BB6040F278
:1001F0000403C2F200037B60BB683B600BE0FB685A
:100200001A683B681A603B6803F104033B60FB68B3
:1002100003F10403FB607A683B689A42EFD800F070
:1002200067FA07F11007BD4680BD00BF80B400AF7C
:10023000FEE700BF80B400AFFEE700BF80B400AFB0
:10024000FEE700BF80B400AFFEE700BF80B400AFA0
:10025000FEE700BF80B400AFFEE700BF80B400AF90
:10026000FEE700BF80B400AFFEE700BF80B400AF80
:04027000FEE700BFE6
:04027400D5010008A8
:1002780080B400AF4FF46053C4F202034FF46052ED
:10028800C4F20202126B42F001021A634FF000033B
:10029800C4F202034FF000021A604FF00003C4F2E8
:1002A80002034FF00002DA60BD4680BC704700BF11
:1002B80080B400AF40F20403C2F200031B78184672
:1002C800BD4680BC704700BF80B584B000AF786081
:1002D8004FF00003FB814FF000037B734FF00003E6
:1002E8003B73FFF7C5FF4FF00003C4F202031B691D
:1002F800DBB203F001033B734FF6FF73FB8103E0AE
:10030800FB8903F1FF33FB81FB89002BF8D14FF008
:100318000003C4F202031B69DBB203F001037B7321
:100328007A7B3B7B9A4212D17B7B002B07D040F231
:100338000403C2F200034FF001021A70D3E740F23F
:100348000403C2F200034FF000021A70CBE74FF02B
:1003580000033B734FF000037B73C4E780B400AF26
:100368004FF46053C4F202034FF46052C4F2020225
:10037800126B42F008021A634FF44063C4F202039E
:100388004FF0AA421A604FF44063C4F202034FF0E0
:100398002A42DA604FF44063C4F202034FF00002CD
:1003A8005A61BD4680BC704780B483B000AF024636
:1003B8000B46FA71BB71BB790F2B2AD8FB79002B3E
:1003C80012D0012B23D14FF44063C4F202034FF43F
:1003D8004062C4F202025169BA794FF0010000FA92
:1003E80002F20A435A6115E04FF44063C4F2020373
:1003F8004FF44062C4F202025169BA794FF0010029
:1004080000FA02F26FEA02020A405A6102E000BFF3
:1004180000E000BF07F10C07BD4680BC704700BF75
:1004280080B584B000AF78604FF00003FB81FFF720
:1004380095FF00E000BFFFF73BFF0346012BF9D112
:100448004FF001004FF00C01FFF7AEFF4FF0000333
:10045800FB8103E0FB8903F10103FB81FA8940F288
:10046800FF739A42F6D94FF001004FF00D01FFF7E4
:100478009BFF4FF00003FB8103E0FB8903F10103BD
:10048800FB81FA8940F2FF739A42F6D94FF00100D6
:100498004FF00E01FFF788FF4FF00003FB8103E0E8
:1004A800FB8903F10103FB81FA8940F2FF739A4249
:1004B800F6D94FF001004FF00F01FFF775FF4FF02D
:1004C8000003FB8103E0FB8903F10103FB81FA8947
:1004D80040F2FF739A42F6D94FF000004FF00C013A
:1004E800FFF762FF4FF00003FB8103E0FB8903F194
:1004F8000103FB81FA8940F2FF739A42F6D94FF063
:1005080000004FF00D01FFF74FFF4FF00003FB8194
:1005180003E0FB8903F10103FB81FA8940F2FF73D1
:100528009A42F6D94FF000004FF00E01FFF73CFF5A
:100538004FF00003FB8103E0FB8903F10103FB811A
:10054800FA8940F2FF739A42F6D94FF000004FF053
:100558000F01FFF729FF4FF00003FB8103E0FB8940
:1005680003F10103FB81FA8940F2FF739A42F6D93D
:1005780060E700BF80B584B002AF4FF00003FB71A5
:1005880000F0CAFB0346FB71FB79002B00D0FEE7A5
:1005980041F2BC33C0F60003009340F22940C0F694
:1005A800000040F21811C2F200014FF480724FF0BF
:1005B8000A0300F0FFFC0346FB71FB79002B00D017
:1005C800FEE741F2C433C0F60003009340F2D120A5
:1005D800C0F6000040F21801C2F200014FF4807228
:1005E8004FF0090300F0E6FC0346FB71FB79002B92
:1005F80000D0FEE700F0C6FBFEE700BF80B582B082
:1006080000AF40F27822C0F6000240F27423C0F630
:100618000003D31A4FEAA3033B604FF000037B604B
:100628000BE040F27423C0F600037A6853F82230D6
:1006380098477B6803F101037B607A683B689A42BC
:10064800EFD340F27822C0F6000240F27823C0F6D9
:100658000003D31A4FEAA3033B604FF000037B600B
:100668000BE040F27823C0F600037A6853F8223092
:1006780098477B6803F101037B607A683B689A427C
:10068800EFD307F10807BD4680BD00BF80B582B033
:1006980000AF40F27822C0F6000240F27823C0F69C
:1006A8000003D31A4FEAA3033B603B687B600DE06D
:1006B8007B6803F1FF3240F27823C0F6000353F859
:1006C800223098477B6803F1FF337B607B68002BFF
:1006D800EED107F10807BD4680BD00BF80B483B0E6
:1006E80000AF7860FEE700BF80B500AF4FF46053FD
:1006F800C4F202034FF46052C4F20202126842F0DC
:1007080001021A604FF46053C4F202034FF0000272
:100718009A604FF46053C4F202034FF46052C4F27B
:100728000202126822F0847222F480321A604FF4B6
:100738006053C4F2020343F21002C2F200425A604C
:100748004FF46053C4F202034FF46052C4F2020241
:10075800126822F480221A604FF46053C4F2020334
:100768004FF00002DA6000F009F84FF46D43CEF262
:1007780000034FF000629A6080BD00BF80B483B070
:1007880000AF4FF000037B604FF000033B604FF475
:100798006053C4F202034FF46052C4F202021268BA
:1007A80042F480321A604FF46053C4F202031B68AB
:1007B80003F400333B607B6803F101037B603B6813
:1007C800002B03D17B68B3F5A04FECD14FF46053F5
:1007D800C4F202031B6803F40033002B03D04FF06C
:1007E80001033B6002E04FF000033B603B68012BD4
:1007F80040F082804FF46053C4F202034FF4605219
:10080800C4F20202126C42F080521A644FF4E043C0
:10081800C4F200034FF4E042C4F20002126842F44A
:1008280040421A604FF46053C4F202034FF460521E
:10083800C4F2020292689A604FF46053C4F2020351
:100848004FF46052C4F20202926842F400429A6085
:100858004FF46053C4F202034FF46052C4F2020230
:10086800926842F4A0529A604FF46053C4F20203B3
:1008780045F21942C0F240725A604FF46053C4F214
:1008880002034FF46052C4F20202126842F080720E
:100898001A6000BF4FF46053C4F202031B6803F0F0
:1008A8000073002BF6D04FF47053C4F2020340F2E9
:1008B80005721A604FF46053C4F202034FF4605299
:1008C800C4F20202926822F003029A604FF4605365
:1008D800C4F202034FF46052C4F20202926842F07A
:1008E80002029A6000BF4FF46053C4F202039B688F
:1008F80003F00C03082BF6D107F10C07BD4680BCAA
:10090800704700BF72B636490A6842F400720A603E
:100918003449002241F8042B0860043903220A6094
:100928003149FF20087062B67047EFF3108072B645
:10093800704780F3108862B6704772B62B485FF034
:100948008051016062B6704772B628485FF08051E6
:10095800016062B670471EF0040F08BF00F01DB8B2
:1009680023480068016911F0010F18BF00F025B88D
:1009780020480068EFF3098121E9F00F01601C4865
:1009880000680168B1E8F00F81F309881848006829
:10099800184908604EF0040E7047022484F3148846
:1009A800BFF36F8F12480068016921F001010161EE
:1009B800016881F30988FFF7E9BF0E480068EFF383
:1009C800098121E9F00F016009480068016921F0F7
:1009D80001010161016881F30988FFF7D7BF0000B1
:1009E80014ED00E010E000E022ED00E004ED00E08E
:1009F8000C0000200800002080B485B000AF03463A
:100A0800FB714FF00003FB734FF00003BB73FB79DE
:100A18004FEAD303DBB203F00703FB73FB7903F060
:100A28000703BB73FA7B41F2D033C0F600039A5C2C
:100A380040F21503C2F200031B781343DAB240F206
:100A48001503C2F200031A70FA7BF97B40F21823EF
:100A5800C2F20003595CB87B41F2D033C0F6000300
:100A68001B5C0B43D9B240F21823C2F2000399541D
:100A780007F11407BD4680BC704700BF80B485B03D
:100A880000AF0346FB714FF00003FB734FF0000308
:100A9800BB73FB794FEAD303DBB203F00703FB73A5
:100AA800FB7903F00703BB73FA7BF97B40F2182349
:100AB800C2F200035B5CD9B2B87B41F2D033C0F616
:100AC80000031B5CDBB26FEA0303DBB20B40DBB253
:100AD800D9B240F21823C2F200039954FA7B40F2CB
:100AE8001823C2F200039B5C002B17D1FA7B41F25A
:100AF800D033C0F600039B5CDBB26FEA0303DAB2C3
:100B080040F21503C2F200031B78DBB21340DBB2DC
:100B1800DAB240F21503C2F200031A7007F11407A3
:100B2800BD4680BC704700BF80B582B000AF4FF0B3
:100B38000003FB714FF00003BB714FF000037B71A2
:100B48004FF000033B6040F20003C2F200031B7841
:100B5800002B72D140F21503C2F200031B78002B60
:100B68006BD040F20803C2F200031B684FF0010289
:100B78005A77FFF7DAFE386040F21503C2F2000335
:100B88001B781A4641F2D833C0F600039B5C03F089
:100B98000703FB71FA7940F21823C2F200039B5C49
:100BA8001A4641F2D833C0F600039B5C03F00703F2
:100BB800BB71FB794FEAC303DAB2BB7903F00703D1
:100BC800DBB2D3187B717A7913464FEA43039B183B
:100BD8004FEA031340F22032C2F200029A1840F2A0
:100BE8000C03C2F200031A6040F20C03C2F20003C5
:100BF8001B684FF003025A7740F20C03C2F200035D
:100C08001A6840F20803C2F200031B689A4210D027
:100C18007B791846FFF732FF40F20003C2F2000367
:100C28004FF0AA021A703868FFF783FEFFF78CFEB0
:100C38000BE03868FFF77DFE07E040F20803C2F2D8
:100C480000031B684FF003025A7707F10807BD46F7
:100C580080BD00BF80B483B000AF78607B681B683C
:100C6800A3F104027B681A607B681B684FF08072EE
:100C78001A607B681B68A3F104027B681A607B68B2
:100C88001B687A6852681A607B681B68A3F10402C3
:100C98007B681A607B681B686FF002021A607B68C9
:100CA8001B68A3F104027B681A607B681B684FF01D
:100CB80000021A607B681B68A3F104027B681A6053
:100CC8007B681B684FF000021A607B681B68A3F101
:100CD80004027B681A607B681B684FF000021A6088
:100CE8007B681B68A3F104027B681A607B681B6839
:100CF8004FF000021A607B681B68A3F104027B684E
:100D08001A607B681B684FF000021A6007F10C0735
:100D1800BD4680BC704700BF80B584B002AF00F00C
:100D2800F9F840F21403C2F200034FF000021A70FF
:100D380040F21003C2F200034FF000021A6041F2C1
:100D4800D843C0F60003009340F6C950C0F600002F
:100D580040F22021C2F200014FF480724FF03F03AD
:100D680000F028F90346FB71FB79002B02D04FF005
:100D7800010301E04FF00003184607F10807BD46DC
:100D880080BD00BF80B500AF40F64120FFF7BAFD37
:100D980000F00AF840F21403C2F200034FF0FF0219
:100DA8001A70FFF7C1FEFEE780B400AF40F20003FF
:100DB800C2F200034FF000021A70BD4680BC7047B3
:100DC80080B584B000AF78604FF00003FB604FF04F
:100DD8000003BB60FFF7A9FDB860FB6803F10103DE
:100DE800FB60B868FFF7A5FDF4E700BF80B582B0E7
:100DF80000AF4FF000037B604FF000033B60FFF74C
:100E080094FD386040F21003C2F200031B6803F13E
:100E1800010240F21003C2F200031A603868FFF7BB
:100E280088FD40F21403C2F200031B78FF2B6AD13D
:100E380040F21003C2F200031A6840F20803C2F23B
:100E480000031B689B69D31A1A4640F20803C2F2D2
:100E580000031B685B699A4219DB40F20803C2F27F
:100E680000031B684FF001025A7740F20803C2F2F0
:100E780000031A6840F21003C2F200031B68936172
:100E880040F20003C2F200034FF000021A70204B38
:100E98007B6031E07B685B7F022B2AD07B685B7FBD
:100EA800012B26D140F21003C2F200031A687B68B6
:100EB8009B69D31A1A467B685B699A4219DB7B687F
:100EC8004FF000025A777B681B7F1846FFF794FDA6
:100ED8007B681A7F40F20803C2F200031B681B7F7D
:100EE8009A4206D240F20003C2F200034FF0000219
:100EF8001A707B689B687B607A686FF055139A421A
:100F0800C8D1FFF711FE07F10807BD4680BD00BF35
:100F1800F00E002080B582B000AF4FF00003FB71E7
:100F280038E0FA7913464FEA43039B184FEA031354
:100F380040F22032C2F200029B1818464FF000011E
:100F48004FF0300200F0A0F9F97940F22032C2F2F5
:100F580000020B464FEA43035B184FEA0313D3180A
:100F680003F128034FF000029A71F97940F2203218
:100F7800C2F200020B464FEA43035B184FEA031321
:100F8800D31803F118034FF004025A71FB7903F1E7
:100F98000103FB71FB793F2BC3D940F22033C2F226
:100FA80000036FF05512C3F8D82B07F10807BD46A8
:100FB80080BD00BF90B589B000AFF860B9607A60B5
:100FC800FB704FF00003FB76FB68002B02D14FF05B
:100FD8000D0351E1BB68002B02D14FF00D034BE12B
:100FE8007B68002B02D14FF00D0345E1F97840F200
:100FF8002032C2F200020B464FEA43035B184FEA65
:101008000313D31803F128039B79002B02D04FF068
:10101800030331E1FFF789FC7861F9787B684FEACF
:1010280093034FEA8303BA68D01840F22032C2F221
:1010380000020B464FEA43035B184FEA0313D31829
:101048001860F978F86840F22032C2F200020B46C4
:101058004FEA43035B184FEA0313D31803F1040361
:101068001860F97840F22032C2F200020B464FEACB
:1010780043035B184FEA0313D31803F11803FA78F4
:101088001A71F97840F22032C2F200020B464FEA98
:1010980043035B184FEA0313D31803F110034FF00F
:1010A80001021A60F97840F22032C2F200020B46BF
:1010B8004FEA43035B184FEA0313D31803F11403F1
:1010C8004FF040021A60F97840F22032C2F2000272
:1010D8000B464FEA43035B184FEA0313D31803F197
:1010E80018034FF000021A60F97840F22032C2F279
:1010F80000020B464FEA43035B184FEA0313D31869
:1011080003F128034FF0FF029A71F97840F2203278
:10111800C2F200020B464FEA43035B184FEA03137F
:10112800D31803F118034FF000025A71FA781346E6
:101138004FEA43039B184FEA031340F22032C2F2EE
:1011480000029B181846FFF785FDFB781846FFF745
:1011580053FC3B6B002B11D1F97840F22032C2F2DC
:1011680000020B464FEA43035B184FEA0313D318F8
:1011780003F118034FF03F029A7128E04FF0000383
:10118800FB761FE0F978FC7E3B6B187840F2203242
:10119800C2F200020B464FEA43035B184FEA0313FF
:1011A800D3181B1903F1180302469A713B6B03F11C
:1011B80001033B633B6B1B78002B07D0FB7E03F1DD
:1011C8000103FB76FB7E132BDCD900E000BFFB7824
:1011D8003F2B11D1F97840F22032C2F200020B46BF
:1011E8004FEA43035B184FEA0313D31803F10803CC
:1011F8006FF055121A603AE0224BFB6102E0FB697E
:101208009B68FB61FB699A686FF055139A42F6D1A7
:10121800FA7813464FEA43039B184FEA031340F248
:101228002032C2F200029A18FB699A60F97840F2FB
:101238002032C2F200020B464FEA43035B184FEA22
:101248000313D31803F10C03FA691A60F97840F212
:101258002032C2F200020B464FEA43035B184FEA02
:101268000313D31803F108036FF055121A60786955
:10127800FFF75FFB4FF00003184607F12407BD4650
:1012880090BD00BFF00E0020F0B48407034600F0C4
:101298008E80541E002A00F08880E507CEB211D453
:1012A8001A46671E02F8016B1346154692070FD0BF
:1012B800002C7AD003F8016B9A073C461D4607D0EC
:1012C800013CEDE7034603F8016B9A071D46F7D189
:1012D800032C52D9CEB246EA06270F2C47EA074319
:1012E8002DD9A4F1100217460F2FC2F300162B6058
:1012F8006B60AB60EB6005F1100216D93EB1103F90
:10130800136053609360D36010320F2F0DD9203FC4
:1013180002F11006136053609360D3601361536148
:101328009361D36120320F2FF1D8A4F1100222F07B
:101338000F0204F00F041032032C15441DD9271F87
:101348003E462A46032E42F8043BC7F380070DD9D0
:1013580027B1043E032E42F8043B07D91746083E3E
:1013680047F8043B53603A1D032EF7D8231F23F098
:101378000302131D04F00304ED18B4B12B46C9B2DF
:1013880003F8011B2C19ED436219A34202F0010571
:101398000BD01DB103F8011BA34206D01A4602F870
:1013A800011B5970531CA342F8D1F0BC7047054685
:1013B80014468DE74C65645461736B004275747410
:1013C8006F6E5461736B00000102040810204080A6
:1013D80000000100020001000300010002000100FA
:1013E80004000100020001000300010002000100E6
:1013F80005000100020001000300010002000100D5
:1014080004000100020001000300010002000100C5
:1014180006000100020001000300010002000100B3
:1014280004000100020001000300010002000100A5
:101438000500010002000100030001000200010094
:101448000400010002000100030001000200010085
:101458000700010002000100030001000200010072
:101468000400010002000100030001000200010065
:101478000500010002000100030001000200010054
:101488000400010002000100030001000200010045
:101498000600010002000100030001000200010033
:1014A8000400010002000100030001000200010025
:1014B8000500010002000100030001000200010014
:1014C8000400010002000100030001000200010005
:1014D800754C69706549646C655461736B000000F4
:0414E800AA00000056
:040000050800018965
:00000001FF
