:020000040800F2
:100000000000022089010008350200083D020008B6
:10001000450200084D0200085502000800000000DB
:100020000000000000000000000000005D02000869
:1000300065020008000000006D0200083D04000891
:100040002D0200082D0200082D0200082D020008D4
:100050002D0200082D0200082D0200082D020008C4
:100060002D0200082D0200082D0200082D020008B4
:100070002D0200082D0200082D0200082D020008A4
:100080002D0200082D0200082D0200082D02000894
:100090002D0200082D0200082D0200082D02000884
:1000A0002D0200082D0200082D0200082D02000874
:1000B0002D0200082D0200082D0200082D02000864
:1000C0002D0200082D0200082D0200082D02000854
:1000D0002D0200082D0200082D0200082D02000844
:1000E0002D0200082D0200082D0200082D02000834
:1000F0002D0200082D0200082D0200082D02000824
:100100002D0200082D0200082D0200082D02000813
:100110002D0200082D0200082D0200082D02000803
:100120002D0200082D0200082D0200082D020008F3
:100130002D0200082D0200082D0200082D020008E3
:100140002D0200082D0200082D0200082D020008D3
:100150002D0200082D0200082D0200082D020008C3
:100160002D0200082D0200082D0200082D020008B3
:100170002D0200082D0200082D0200082D020008A3
:100180002D0200082D02000880B584B000AF40F2B7
:100190003803C2F20003BB6040F69423C2F20003AE
:1001A0007B60BB683B6007E03B684FF000021A6071
:1001B0003B6803F104033B607A683B689A42F3D8DA
:1001C00000F016FA00F05CF8F86000F059FAF868F0
:1001D00000F07EFA80B584B000AF40F64453C0F61C
:1001E0000003FB6040F20003C2F20003BB6040F278
:1001F0003803C2F200037B60BB683B600BE0FB6826
:100200001A683B681A603B6803F104033B60FB68B3
:1002100003F10403FB607A683B689A42EFD800F070
:100220005DFA07F11007BD4680BD00BF80B400AF86
:10023000FEE700BF80B400AFFEE700BF80B400AFB0
:10024000FEE700BF80B400AFFEE700BF80B400AFA0
:10025000FEE700BF80B400AFFEE700BF80B400AF90
:10026000FEE700BF80B400AFFEE700BF80B400AF80
:0C027000FEE700BF80B400AFFEE700BF57
:04027C00D5010008A0
:1002800080B582B002AF44F2A01000F035FB00F060
:100290005DFB4FF00703009340F25D40C0F60000A5
:1002A00040F27401C2F200014FF0000240F200037C
:1002B000C2F2000300F058FB4FF00803009340F235
:1002C000B940C0F6000040F27441C2F200014FF0A4
:1002D000010240F20803C2F2000300F045FB4FF0B8
:1002E0000803009340F21550C0F6000040F274611C
:1002F000C2F200014FF0030240F21003C2F2000309
:1003000000F032FB4FF00803009340F24150C0F67A
:10031000000040F27451C2F200014FF0090240F2B5
:100320001803C2F2000300F01FFB4FF00803009314
:1003300040F26D50C0F6000040F27471C2F200014C
:100340004FF0070240F22003C2F2000300F00CFB62
:100350004FF00803009340F29950C0F6000040F2BD
:100360007421C2F200014FF0020240F22803C2F2EF
:10037000000300F0F9FA4FF00803009340F2C55073
:10038000C0F6000040F27431C2F200014FF00C02DE
:1003900040F23003C2F2000300F0E6FA40F200003F
:1003A000C2F200004FF0070100F0BEFB0346184602
:1003B00000F00AFC024640F23803C2F200031A6061
:1003C00040F20800C2F200004FF0080100F0ACFB60
:1003D0000346184600F0F8FB024640F23C03C2F226
:1003E00000031A6040F23803C2F200031B689B69E5
:1003F0004FF000009847034C034D2068296800F037
:1004000098FAFEE7380000203C00002080B400AFDE
:1004100040F24003C2F200031B68002B0BD040F2F5
:100420004003C2F200031B6803F1FF3240F24003B5
:10043000C2F200031A60BD4680BC704780B500AFB1
:10044000FFF7E4FF80BD00BF80B483B000AF7860E9
:1004500007F10C07BD4680BC704700BF80B483B075
:1004600000AF786040F26403C2F200031B6803F13E
:10047000010240F26403C2F200031A6040F2680312
:10048000C2F200031B6803F1FF3240F26803C2F2BC
:1004900000031A6040F26C03C2F200031B6803F110
:1004A000010240F26C03C2F200031A6007F10C076C
:1004B000BD4680BC704700BF80B483B000AF786099
:1004C00040F25803C2F200031B6803F1010240F23C
:1004D0005803C2F200031A6040F25C03C2F2000348
:1004E0001B6803F1FF3240F25C03C2F200031A60A2
:1004F00040F26003C2F200031B6803F1010240F204
:100500006003C2F200031A6007F10C07BD4680BC0D
:10051000704700BF80B483B000AF786040F25403EE
:10052000C2F200031B6803F1010240F25403C2F25D
:1005300000031A6007F10C07BD4680BC704700BF7E
:1005400080B483B000AF786040F25003C2F2000381
:100550001B6803F1010240F25003C2F200031A606B
:1005600007F10C07BD4680BC704700BF80B483B064
:1005700000AF786040F24C03C2F200031B6803F145
:10058000010240F24C03C2F200031A6007F10C07AB
:10059000BD4680BC704700BF80B483B000AF7860B8
:1005A00040F24803C2F200031B6803F1010240F26B
:1005B0004803C2F200031A6007F10C07BD4680BC75
:1005C000704700BF80B483B000AF786040F244034E
:1005D000C2F200031B6803F1010240F24403C2F2BD
:1005E00000031A6007F10C07BD4680BC704700BFCE
:1005F00080B582B000AF40F28022C0F6000240F227
:100600007C23C0F60003D31A4FEAA3033B604FF0EC
:1006100000037B600BE040F27C23C0F600037A68A5
:1006200053F8223098477B6803F101037B607A68B6
:100630003B689A42EFD340F28022C0F6000240F2BB
:100640008023C0F60003D31A4FEAA3033B604FF0A8
:1006500000037B600BE040F28023C0F600037A6861
:1006600053F8223098477B6803F101037B607A6876
:100670003B689A42EFD307F10807BD4680BD00BF33
:1006800080B582B000AF40F28022C0F6000240F296
:100690008023C0F60003D31A4FEAA3033B603B68F4
:1006A0007B600DE07B6803F1FF3240F28023C0F6EF
:1006B000000353F8223098477B6803F1FF337B60D7
:1006C0007B68002BEED107F10807BD4680BD00BF57
:1006D00080B483B000AF7860FEE700BF80B500AFA4
:1006E0004FF46053C4F202034FF46052C4F20202AA
:1006F000126842F001021A604FF46053C4F2020320
:100700004FF000029A604FF46053C4F202034FF4BA
:100710006052C4F20202126822F0847222F4803223
:100720001A604FF46053C4F2020343F21002C2F2A3
:1007300000425A604FF46053C4F202034FF4605217
:10074000C4F20202126822F480221A604FF460534D
:10075000C4F202034FF00002DA6000F009F84FF42F
:100760006D43CEF200034FF000629A6080BD00BF7F
:1007700080B483B000AF4FF000037B604FF0000304
:100780003B604FF46053C4F202034FF46052C4F272
:100790000202126842F480321A604FF46053C4F2CD
:1007A00002031B6803F400333B607B6803F1010321
:1007B0007B603B68002B03D17B68B3F5A04FECD185
:1007C0004FF46053C4F202031B6803F40033002BA0
:1007D00003D04FF001033B6002E04FF000033B60A9
:1007E0003B68012B40F082804FF46053C4F2020357
:1007F0004FF46052C4F20202126C42F080521A644A
:100800004FF4E043C4F200034FF4E042C4F20002AC
:10081000126842F440421A604FF46053C4F202037B
:100820004FF46052C4F2020292689A604FF460532F
:10083000C4F202034FF46052C4F20202926842F41E
:1008400000429A604FF46053C4F202034FF46052C6
:10085000C4F20202926842F4A0529A604FF46053CC
:10086000C4F2020345F21942C0F240725A604FF4DA
:100870006053C4F202034FF46052C4F202021268E1
:1008800042F080721A6000BF4FF46053C4F202035A
:100890001B6803F00073002BF6D04FF47053C4F2C2
:1008A000020340F205721A604FF46053C4F202036F
:1008B0004FF46052C4F20202926822F003029A607E
:1008C0004FF46053C4F202034FF46052C4F20202C8
:1008D000926842F002029A6000BF4FF46053C4F283
:1008E00002039B6803F00C03082BF6D107F10C07F9
:1008F000BD4680BC704700BF2DE9F00F014602B431
:10090000EFF308824FF0020080F31488BFF36F8F7B
:1009100082F309880C484FF0000140F8041B02BC28
:10092000016004384FF0030140F8041BBDE8F00FEC
:100930007047EFF3098222E9F00F42614A69B2E899
:10094000F00F82F30988704710E000E080B500AF37
:1009500040F67410C2F200004FF000014FF49072A4
:1009600000F056F980BD00BF80B489B000AFF860D8
:10097000B9603B601346FB7140F67413C2F200038A
:10098000FB6140F67413C2F200037B614FF0000379
:10099000FB7697F82830202B02D94FF00503BBE0F7
:1009A0004FF00003FB7643E0FB69DB68002B28D1A6
:1009B000FA68FB699A61FB69BA685A61FB791F2B77
:1009C00002D94FF00303A7E0FB7903F01F03DAB26B
:1009D000FB695A72FB693A681A61FB69FA7E1A72FE
:1009E000FB694FF000025A60FB694FF0E8029A720F
:1009F000FB694FF00002DA72FB694FF0FF02DA6028
:100A000019E0FA7E13464FEAC3039B184FEA8303AB
:100A100040F67412C2F200029B18FB61FB7E062BAB
:100A200002D94FF0020377E0FB7E03F10103FB766E
:100A3000FB7E072BB8D93B4BFB61FB69DB68002BC6
:100A400046D1FA6940F24943C0F600039361FA695E
:100A500040F67403C2F200035361FB694FF02002B9
:100A60005A72FA6940F63C53C0F600031361FB6901
:100A70004FF008021A72FB694FF000025A60FB69DE
:100A80004FF47A721A60FB694FF00002DA72FB6968
:100A90004FF0FF02DA60FA7E13464FEAC3039B1859
:100AA0004FEA830340F67412C2F200029A18FB69FF
:100AB000DA61FB69DB69FB61FB691A4A1A62FB694F
:100AC0004FF00002DA6125E0FB69DB69FB6100E0C1
:100AD00000BFFB69DB69002BF6D1FB7E03F1FF321F
:100AE00013464FEAC3039B184FEA830340F6741280
:100AF000C2F200029A18FB69DA61FB69DB697B616B
:100B00007B69FA691A62FB69DB69FB61FB694FF07B
:100B10000002DA614FF00003184607F12407BD46D2
:100B200080BC7047700A002080B487B000AF786046
:100B30000B46FB70234B7B614FF00003FB744FF0BF
:100B40000003FB60FB78202B02D94FF0050333E054
:100B50007B69DB697B614FF00003FB747B691B6978
:100B6000FB601AE07A68FB689A420CD17B6803F15B
:100B700001037B60FB6803F10103FB60FB7C03F175
:100B80000103FB7409E07B69DB697B614FF00003C3
:100B9000FB747B691B69FB6003E0FA78FB7C9A427B
:100BA000E0D2FB7C002B02D07B691B7A04E07B69DE
:100BB000002BF2D14FF00903184607F11C07BD4680
:100BC00080BC7047700A002080B485B000AF034637
:100BD000FB710E4BFB60FB79092B02D14FF0000338
:100BE0000EE0FB681B7AFA799A4201D1FB6807E0B4
:100BF000FB68DB69FB60FB68002BF2D14FF0000360
:100C0000184607F11407BD4680BC7047700A0020E3
:100C1000F0B48407034600F08E80541E002A00F0D2
:100C20008880E507CEB211D41A46671E02F8016B20
:100C30001346154692070FD0002C7AD003F8016BAB
:100C40009A073C461D4607D0013CEDE7034603F8F2
:100C5000016B9A071D46F7D1032C52D9CEB246EA52
:100C600006270F2C47EA07432DD9A4F11002174697
:100C70000F2FC2F300162B606B60AB60EB6005F1C9
:100C8000100216D93EB1103F136053609360D360D9
:100C900010320F2F0DD9203F02F110061360536060
:100CA0009360D360136153619361D36120320F2F3E
:100CB000F1D8A4F1100222F00F0204F00F04103258
:100CC000032C15441DD9271F3E462A46032E42F801
:100CD000043BC7F380070DD927B1043E032E42F829
:100CE000043B07D91746083E47F8043B53603A1DBA
:100CF000032EF7D8231F23F00302131D04F003046F
:100D0000ED18B4B12B46C9B203F8011B2C19ED4301
:100D10006219A34202F001050BD01DB103F8011BBB
:100D2000A34206D01A4602F8011B5970531CA34275
:100D3000F8D1F0BC7047054614468DE75461736BDB
:040D400049646C6531
:100D44005461736B547279005461736B54727932C9
:100D54005461736B547279335461736B5472793484
:100D64005461736B547279355461736B5472793670
:080D74005461736B547279376E
:040000050800018965
:00000001FF
