:020000040800F2
:100000000000022089010008350200083D020008B6
:100010004D020008550200085D02000800000000C3
:100020000000000000000000000000006502000861
:100030006D02000800000000EB0500087D020008CA
:100040002D0200082D0200082D0200082D020008D4
:100050002D0200082D0200082D0200082D020008C4
:100060002D0200082D0200082D0200082D020008B4
:100070002D0200082D0200082D0200082D020008A4
:100080002D0200082D0200082D0200082D02000894
:100090002D0200082D0200082D0200082D02000884
:1000A0002D0200082D0200082D0200082D02000874
:1000B0002D0200082D0200082D0200082D02000864
:1000C0002D0200082D0200082D0200082D02000854
:1000D0002D0200082D0200082D0200082D02000844
:1000E0002D0200082D0200082D0200082D02000834
:1000F0002D0200082D0200082D0200082D02000824
:100100002D0200082D0200082D0200082D02000813
:100110002D0200082D0200082D0200082D02000803
:100120002D0200082D0200082D0200082D020008F3
:100130002D0200082D0200082D0200082D020008E3
:100140002D0200082D0200082D0200082D020008D3
:100150002D0200082D0200082D0200082D020008C3
:100160002D0200082D0200082D0200082D020008B3
:100170002D0200082D0200082D0200082D020008A3
:100180002D0200082D02000880B584B000AF40F2B7
:100190000003C2F20003BB6040F20803C2F2000396
:1001A0007B60BB683B6007E03B684FF000021A6071
:1001B0003B6803F104033B607A683B689A42F3D8DA
:1001C00000F066F800F060F8F86000F0A9F8F86850
:1001D00000F0CEF880B584B000AF40F28C63C0F67A
:1001E0000003FB6040F20003C2F20003BB6040F278
:1001F0000003C2F200037B60BB683B600BE0FB685E
:100200001A683B681A603B6803F104033B60FB68B3
:1002100003F10403FB607A683B689A42EFD800F070
:10022000ADF807F11007BD4680BD00BF80B400AF38
:10023000FEE700BF80B400AFFEE700BF80B4C3B0EC
:1002400000AF4FF00003C7F80431FEE780B400AF01
:10025000FEE700BF80B400AFFEE700BF80B400AF90
:10026000FEE700BF80B400AFFEE700BF80B400AF80
:10027000FEE700BF80B400AFFEE700BF80B400AF70
:04028000FEE700BFD6
:04028400D501000898
:1002880080B400AFFEE700BF80B582B000AF40F297
:100298008822C0F6000240F28423C0F60003D31A75
:1002A8004FEAA3033B604FF000037B600BE040F292
:1002B8008423C0F600037A6853F8223098477B6895
:1002C80003F101037B607A683B689A42EFD340F2FE
:1002D8008822C0F6000240F28823C0F60003D31A31
:1002E8004FEAA3033B604FF000037B600BE040F252
:1002F8008823C0F600037A6853F8223098477B6851
:1003080003F101037B607A683B689A42EFD307F1F7
:100318000807BD4680BD00BF80B582B000AF40F27F
:100328008822C0F6000240F28823C0F60003D31AE0
:100338004FEAA3033B603B687B600DE07B6803F1F9
:10034800FF3240F28823C0F6000353F82230984762
:100358007B6803F1FF337B607B68002BEED107F1EC
:100368000807BD4680BD00BF80B483B000AF786089
:10037800FEE700BF80B500AF4FF46053C4F202033C
:100388004FF46052C4F20202126842F001021A608D
:100398004FF46053C4F202034FF000029A604FF426
:1003A8006053C4F202034FF46052C4F202021268AE
:1003B80022F0847222F480321A604FF46053C4F23F
:1003C800020343F21002C2F200425A604FF4605333
:1003D800C4F202034FF46052C4F20202126822F41B
:1003E80080221A604FF46053C4F202034FF00002F7
:1003F800DA6000F009F84FF46D43CEF200034FF0D5
:1004080000629A6080BD00BF80B483B000AF4FF037
:1004180000037B604FF000033B604FF46053C4F26D
:1004280002034FF46052C4F20202126842F48032AE
:100438001A604FF46053C4F202031B6803F40033DC
:100448003B607B6803F101037B603B68002B03D1B1
:100458007B68B3F5A04FECD14FF46053C4F20203AC
:100468001B6803F40033002B03D04FF001033B60FB
:1004780002E04FF000033B603B68012B40F08280B4
:100488004FF46053C4F202034FF46052C4F2020204
:10049800126C42F080521A644FF4E043C4F2000335
:1004A8004FF4E042C4F20002126842F440421A607B
:1004B8004FF46053C4F202034FF46052C4F20202D4
:1004C80092689A604FF46053C4F202034FF460528A
:1004D800C4F20202926842F400429A604FF46053F8
:1004E800C4F202034FF46052C4F20202926842F46A
:1004F800A0529A604FF46053C4F2020345F21942C5
:10050800C0F240725A604FF46053C4F202034FF4D1
:100518006052C4F20202126842F080721A6000BF90
:100528004FF46053C4F202031B6803F00073002BFE
:10053800F6D04FF47053C4F2020340F205721A6009
:100548004FF46053C4F202034FF46052C4F2020243
:10055800926822F003029A604FF46053C4F20203D7
:100568004FF46052C4F20202926842F002029A60AA
:1005780000BF4FF46053C4F202039B6803F00C03FE
:10058800082BF6D107F10C07BD4680BC704700BFA9
:1005980072B636490A6842F400720A603449002289
:1005A80041F8042B0860043903220A603149FF200E
:1005B800087062B67047EFF3108072B6704780F328
:1005C800108862B6704772B62B485FF080510160A0
:1005D80062B6704772B628485FF08051016062B613
:1005E80070471EF0040F08BF00F01DB823480068CC
:1005F800016911F0010F18BF00F025B82048006804
:10060800EFF3098121E9F00F01601C4800680168D7
:10061800B1E8F00F81F309881848006818490860A4
:100628004EF0040E7047022484F31488BFF36F8FD2
:1006380012480068016921F001010160016881F335
:100648000988FFF7E9BF0E480068EFF3098121E93F
:10065800F00F016009480068016921F0010101609B
:10066800016881F30988FFF7D7BF000014ED00E0A7
:1006780010E000E022ED00E004ED00E004000020BE
:04068800000000204E
:040000050800018965
:00000001FF
