:020000040800F2
:100000000000022089010008350200083D020008B6
:10001000450200084D0200085502000800000000DB
:100020000000000000000000000000005D02000869
:1000300065020008000000008B060008E10A0008C5
:100040002D0200082D0200082D0200082D020008D4
:100050002D0200082D0200082D0200082D020008C4
:100060002D0200082D0200082D0200082D020008B4
:100070002D0200082D0200082D0200082D020008A4
:100080002D0200082D0200082D0200082D02000894
:100090002D0200082D0200082D0200082D02000884
:1000A0002D0200082D0200082D0200082D02000874
:1000B0002D0200082D0200082D0200082D02000864
:1000C0002D0200082D0200082D0200082D02000854
:1000D0002D0200082D0200082D0200082D02000844
:1000E0002D0200082D0200082D0200082D02000834
:1000F0002D0200082D0200082D0200082D02000824
:100100002D0200082D0200082D0200082D02000813
:100110002D0200082D0200082D0200082D02000803
:100120002D0200082D0200082D0200082D020008F3
:100130002D0200082D0200082D0200082D020008E3
:100140002D0200082D0200082D0200082D020008D3
:100150002D0200082D0200082D0200082D020008C3
:100160002D0200082D0200082D0200082D020008B3
:100170002D0200082D0200082D0200082D020008A3
:100180002D0200082D02000880B584B000AF40F2B7
:100190001403C2F20003BB6041F22C63C2F20003FD
:1001A0007B60BB683B6007E03B684FF000021A6071
:1001B0003B6803F104033B607A683B689A42F3D8DA
:1001C00000F0B6F800F058F8F86000F0F9F8F868B8
:1001D00000F01EF980B584B000AF41F2B013C0F654
:1001E0000003FB6040F20003C2F20003BB6040F278
:1001F0001403C2F200037B60BB683B600BE0FB684A
:100200001A683B681A603B6803F104033B60FB68B3
:1002100003F10403FB607A683B689A42EFD800F070
:10022000FDF807F11007BD4680BD00BF80B400AFE8
:10023000FEE700BF80B400AFFEE700BF80B400AFB0
:10024000FEE700BF80B400AFFEE700BF80B400AFA0
:10025000FEE700BF80B400AFFEE700BF80B400AF90
:10026000FEE700BF80B400AFFEE700BF80B400AF80
:04027000FEE700BFE6
:04027400D5010008A8
:1002780080B584B002AF4FF00003FB7100F0C2FB01
:100288000346FB71FB79002B00D0FEE740F2000328
:10029800C2F20003009340F20130C0F6000040F2C1
:1002A8002401C2F200014FF480724FF0000300F005
:1002B800EFFC0346FB71FB79002B00D0FEE740F210
:1002C8000803C2F20003009340F21930C0F60000A0
:1002D80040F22441C2F200014FF480724FF02F0324
:1002E80000F0D6FC0346FB71FB79002B00D0FEE73B
:1002F80000F0BEFBFEE700BF80B485B000AF7860B9
:100308004FF00003FB60FB6803F10103FB60FAE7B1
:1003180080B485B000AF78604FF00003FB60FB68E5
:1003280003F10103FB60FAE780B582B000AF40F249
:100338007822C0F6000240F27423C0F60003D31AF4
:100348004FEAA3033B604FF000037B600BE040F2F1
:100358007423C0F600037A6853F8223098477B6804
:1003680003F101037B607A683B689A42EFD340F25D
:100378007822C0F6000240F27823C0F60003D31AB0
:100388004FEAA3033B604FF000037B600BE040F2B1
:100398007823C0F600037A6853F8223098477B68C0
:1003A80003F101037B607A683B689A42EFD307F157
:1003B8000807BD4680BD00BF80B582B000AF40F2DF
:1003C8007822C0F6000240F27823C0F60003D31A60
:1003D8004FEAA3033B603B687B600DE07B6803F159
:1003E800FF3240F27823C0F6000353F822309847D2
:1003F8007B6803F1FF337B607B68002BEED107F14C
:100408000807BD4680BD00BF80B483B000AF7860E8
:10041800FEE700BF80B500AF4FF46053C4F202039B
:100428004FF46052C4F20202126842F001021A60EC
:100438004FF46053C4F202034FF000029A604FF485
:100448006053C4F202034FF46052C4F2020212680D
:1004580022F0847222F480321A604FF46053C4F29E
:10046800020343F21002C2F200425A604FF4605392
:10047800C4F202034FF46052C4F20202126822F47A
:1004880080221A604FF46053C4F202034FF0000256
:10049800DA6000F009F84FF46D43CEF200034FF034
:1004A80000629A6080BD00BF80B483B000AF4FF097
:1004B80000037B604FF000033B604FF46053C4F2CD
:1004C80002034FF46052C4F20202126842F480320E
:1004D8001A604FF46053C4F202031B6803F400333C
:1004E8003B607B6803F101037B603B68002B03D111
:1004F8007B68B3F5A04FECD14FF46053C4F202030C
:100508001B6803F40033002B03D04FF001033B605A
:1005180002E04FF000033B603B68012B40F0828013
:100528004FF46053C4F202034FF46052C4F2020263
:10053800126C42F080521A644FF4E043C4F2000394
:100548004FF4E042C4F20002126842F440421A60DA
:100558004FF46053C4F202034FF46052C4F2020233
:1005680092689A604FF46053C4F202034FF46052E9
:10057800C4F20202926842F400429A604FF4605357
:10058800C4F202034FF46052C4F20202926842F4C9
:10059800A0529A604FF46053C4F2020345F2194224
:1005A800C0F240725A604FF46053C4F202034FF431
:1005B8006052C4F20202126842F080721A6000BFF0
:1005C8004FF46053C4F202031B6803F00073002B5E
:1005D800F6D04FF47053C4F2020340F205721A6069
:1005E8004FF46053C4F202034FF46052C4F20202A3
:1005F800926822F003029A604FF46053C4F2020337
:100608004FF46052C4F20202926842F002029A6009
:1006180000BF4FF46053C4F202039B6803F00C035D
:10062800082BF6D107F10C07BD4680BC704700BF08
:1006380072B636490A6842F400720A6034490022E8
:1006480041F8042B0860043903220A603149FF206D
:10065800087062B67047EFF3108072B6704780F387
:10066800108862B6704772B62B485FF080510160FF
:1006780062B6704772B628485FF08051016062B672
:1006880070471EF0040F08BF00F01DB8234800682B
:10069800016911F0010F18BF00F025B82048006863
:1006A800EFF3098121E9F00F01601C480068016837
:1006B800B1E8F00F81F30988184800681849086004
:1006C8004EF0040E7047022484F31488BFF36F8F32
:1006D80012480068016921F001010161016881F394
:1006E8000988FFF7E9BF0E480068EFF3098121E99F
:1006F800F00F016009480068016921F001010161FA
:10070800016881F30988FFF7D7BF000014ED00E006
:1007180010E000E022ED00E004ED00E01800002009
:100728001400002080B485B000AF0346FB714FF081
:100738000003FB734FF00003BB73FB794FEAD3034D
:10074800DBB203F00703FB73FB7903F00703BB730A
:10075800FA7B41F29803C0F600039A5C40F2210349
:10076800C2F200031B781343DAB240F22103C2F24B
:1007780000031A70FA7BF97B40F62413C2F20003D7
:10078800595CB87B41F29803C0F600031B5C0B432D
:10079800D9B240F62413C2F20003995407F11407A2
:1007A800BD4680BC704700BF80B485B000AF03462B
:1007B800FB714FF00003FB734FF00003BB73FB7931
:1007C8004FEAD303DBB203F00703FB73FB7903F0B3
:1007D8000703BB73FA7B41F29803C0F600039B5CE6
:1007E800DBB26FEA0303DAB240F22103C2F200037C
:1007F8001B78DBB21340DBB2DAB240F22103C2F25B
:1008080000031A70FA7BF97B40F62413C2F2000346
:100818005B5CD9B2B87B41F29803C0F600031B5C5D
:10082800DBB26FEA0303DBB20B40DBB2D9B240F6AE
:100838002413C2F20003995407F11407BD4680BC83
:10084800704700BF80B582B000AF4FF00003FB7166
:100858004FF00003BB714FF000037B714FF00003B2
:100868003B6040F21003C2F200031B78002B62D1F8
:10087800FFF7F1FE386040F22103C2F200031B7853
:100888001A4641F2A003C0F600039B5C03F007037D
:10089800FB71FA7940F62413C2F200039B5C1A46F6
:1008A80041F2A003C0F600039B5C03F00703BB7191
:1008B800FB794FEAC303DAB2BB7903F00703DBB273
:1008C800D3187B717A7913464FEA43039B184FEA92
:1008D800031340F62C22C2F200029A1840F21803C1
:1008E800C2F200031A6040F21803C2F200031B6848
:1008F8004FF003025A7740F21803C2F200031A6855
:1009080040F21403C2F200031B689A4210D07B79AC
:100918001846FFF749FF40F21003C2F200034FF0F8
:10092800AA021A703868FFF79AFEFFF7A3FE02E0E2
:100938003868FFF794FE07F10807BD4680BD00BF81
:1009480080B483B000AF78607B681B68A3F10402B1
:100958007B681A607B681B684FF080721A607B683E
:100968001B68A3F104027B681A607B681B687A68BD
:1009780052681A607B681B68A3F104027B681A60DE
:100988007B681B686FF002021A607B681B68A3F122
:1009980004027B681A607B681B684FF000021A60CB
:1009A8007B681B68A3F104027B681A607B681B687C
:1009B8004FF000021A607B681B68A3F104027B6891
:1009C8001A607B681B684FF000021A607B681B681E
:1009D800A3F104027B681A607B681B684FF0000271
:1009E8001A607B681B68A3F104027B681A607B6845
:1009F8001B684FF000021A6007F10C07BD4680BC67
:100A0800704700BF80B584B002AF00F0F1F840F243
:100A18002003C2F200034FF000021A7040F21C03D8
:100A2800C2F200034FF000021A6041F2A013C0F6B0
:100A38000003009340F6B520C0F6000040F62C11E4
:100A4800C2F200014FF480724FF03F0300F020F92A
:100A58000346FB71FB79002B02D04FF0010301E044
:100A68004FF00003184607F10807BD4680BD00BFD8
:100A780080B500AF40F64120FFF7DAFD00F00AF834
:100A880040F22003C2F200034FF0FF021A70FFF792
:100A9800D9FEFEE780B400AF40F21003C2F20003B3
:100AA8004FF000021A70BD4680BC704780B584B014
:100AB80000AF78604FF00003FB604FF00003BB60AD
:100AC800FFF7C9FDB860FB6803F10103FB60B86874
:100AD800FFF7C5FDF4E700BF80B582B000AF4FF067
:100AE80000037B604FF000033B60FFF7B4FD386004
:100AF80040F21C03C2F200031B6803F1010240F23A
:100B08001C03C2F200031A603868FFF7A8FD40F220
:100B18002003C2F200031B78FF2B62D140F21C03B2
:100B2800C2F200031A6840F21403C2F200031B6801
:100B38009B69D31A3F2B19D940F21403C2F2000360
:100B48001B684FF001025A7740F21403C2F2000307
:100B58001A6840F21C03C2F200031B68936140F25A
:100B68001003C2F200034FF000021A701F4B7B60A3
:100B780030E07B685B7F022B29D07B685B7F012B91
:100B880025D140F21C03C2F200031A687B689B69F6
:100B9800D21A7B685B699A4219D37B684FF00002CE
:100BA8005A777B681B7F1846FFF7BCFD7B681A7F66
:100BB80040F21403C2F200031B681B7F9A4206D25C
:100BC80040F21003C2F200034FF000021A707B6873
:100BD8009B687B607A686FF055139A42C9D1FFF71A
:100BE80031FE07F10807BD4680BD00BFFC15002097
:100BF80080B582B000AF4FF00003FB7138E0FA799E
:100C080013464FEA43039B184FEA031340F62C227E
:100C1800C2F200029B1818464FF000014FF0300254
:100C280000F0A0F9F97940F62C22C2F200020B4636
:100C38004FEA43035B184FEA0313D31803F1280361
:100C48004FF000029A71F97940F62C22C2F20002A4
:100C58000B464FEA43035B184FEA0313D31803F11B
:100C680018034FF004025A71FB7903F10103FB7179
:100C7800FB793F2BC3D940F62C23C2F200036FF057
:100C88005512C3F8D82B07F10807BD4680BD00BF31
:100C980090B589B000AFF860B9607A60FB704FF02A
:100CA8000003FB76FB68002B02D14FF00D0351E1E6
:100CB800BB68002B02D14FF00D034BE17B68002B82
:100CC80002D14FF00D0345E1F97840F62C22C2F22B
:100CD80000020B464FEA43035B184FEA0313D3188D
:100CE80003F128039B79002B02D04FF0030331E175
:100CF800FFF7B1FC7861F9787B684FEA93034FEA14
:100D08008303BA68D01840F62C22C2F200020B46C0
:100D18004FEA43035B184FEA0313D3181860F978B6
:100D2800F86840F62C22C2F200020B464FEA430351
:100D38005B184FEA0313D31803F104031860F9781A
:100D480040F62C22C2F200020B464FEA43035B181E
:100D58004FEA0313D31803F11803FA781A71F978D4
:100D680040F62C22C2F200020B464FEA43035B18FE
:100D78004FEA0313D31803F110034FF001021A606E
:100D8800F97840F62C22C2F200020B464FEA4303E0
:100D98005B184FEA0313D31803F114034FF0400212
:100DA8001A60F97840F62C22C2F200020B464FEA8C
:100DB80043035B184FEA0313D31803F118034FF0EA
:100DC80000021A60F97840F62C22C2F200020B46A3
:100DD8004FEA43035B184FEA0313D31803F12803C0
:100DE8004FF0FF029A71F97840F62C22C2F2000205
:100DF8000B464FEA43035B184FEA0313D31803F17A
:100E080018034FF000025A71FA7813464FEA430369
:100E18009B184FEA031340F62C22C2F200029B18DB
:100E28001846FFF78DFDFB781846FFF77BFC3B6BF8
:100E3800002B11D1F97840F62C22C2F200020B46A1
:100E48004FEA43035B184FEA0313D31803F118035F
:100E58004FF03F029A7128E04FF00003FB761FE045
:100E6800F978FC7E3B6B187840F62C22C2F200021F
:100E78000B464FEA43035B184FEA0313D3181B19B9
:100E880003F1180302469A713B6B03F101033B63BC
:100E98003B6B1B78002B07D0FB7E03F10103FB762D
:100EA800FB7E132BDCD900E000BFFB783F2B11D170
:100EB800F97840F62C22C2F200020B464FEA4303AF
:100EC8005B184FEA0313D31803F108036FF05512A8
:100ED8001A603AE0224BFB6102E0FB699B68FB6108
:100EE800FB699A686FF055139A42F6D1FA7813465F
:100EF8004FEA43039B184FEA031340F62C22C2F231
:100F080000029A18FB699A60F97840F62C22C2F21E
:100F180000020B464FEA43035B184FEA0313D3184A
:100F280003F10C03FA691A60F97840F62C22C2F230
:100F380000020B464FEA43035B184FEA0313D3182A
:100F480003F108036FF055121A607869FFF787FB01
:100F58004FF00003184607F12407BD4690BD00BFB7
:100F6800FC150020F0B48407034600F08E80541E60
:100F7800002A00F08880E507CEB211D41A46671E11
:100F880002F8016B1346154692070FD0002C7AD051
:100F980003F8016B9A073C461D4607D0013CEDE774
:100FA800034603F8016B9A071D46F7D1032C52D963
:100FB800CEB246EA06270F2C47EA07432DD9A4F1FB
:100FC800100217460F2FC2F300162B606B60AB6040
:100FD800EB6005F1100216D93EB1103F1360536063
:100FE8009360D36010320F2F0DD9203F02F1100605
:100FF800136053609360D360136153619361D3614D
:1010080020320F2FF1D8A4F1100222F00F0204F0C1
:101018000F041032032C15441DD9271F3E462A46BB
:10102800032E42F8043BC7F380070DD927B1043ECD
:10103800032E42F8043B07D91746083E47F8043BFD
:1010480053603A1D032EF7D8231F23F00302131D04
:1010580004F00304ED18B4B12B46C9B203F8011B20
:101068002C19ED436219A34202F001050BD01DB102
:1010780003F8011BA34206D01A4602F8011B597057
:10108800531CA342F8D1F0BC7047054614468DE7BF
:101098000102040810204080000001000200010045
:1010A8000300010002000100040001000200010029
:1010B8000300010002000100050001000200010018
:1010C8000300010002000100040001000200010009
:1010D80003000100020001000600010002000100F7
:1010E80003000100020001000400010002000100E9
:1010F80003000100020001000500010002000100D8
:1011080003000100020001000400010002000100C8
:1011180003000100020001000700010002000100B5
:1011280003000100020001000400010002000100A8
:101138000300010002000100050001000200010097
:101148000300010002000100040001000200010088
:101158000300010002000100060001000200010076
:101168000300010002000100040001000200010068
:101178000300010002000100050001000200010057
:101188000300010002000100040001000200010048
:101198000300010002000100754C69706549646C28
:0811A800655461736B00000047
:1011B0005461736B547279005461736B5472793259
:0411C000AA00000081
:040000050800018965
:00000001FF
