:020000040800F2
:100000000000022089010008350200083D020008B6
:100010004D020008550200085D02000800000000C3
:100020000000000000000000000000006502000861
:100030006D02000800000000130800087D0200089F
:100040002D0200082D0200082D0200082D020008D4
:100050002D0200082D0200082D0200082D020008C4
:100060002D0200082D0200082D0200082D020008B4
:100070002D0200082D0200082D0200082D020008A4
:100080002D0200082D0200082D0200082D02000894
:100090002D0200082D0200082D0200082D02000884
:1000A0002D0200082D0200082D0200082D02000874
:1000B0002D0200082D0200082D0200082D02000864
:1000C0002D0200082D0200082D0200082D02000854
:1000D0002D0200082D0200082D0200082D02000844
:1000E0002D0200082D0200082D0200082D02000834
:1000F0002D0200082D0200082D0200082D02000824
:100100002D0200082D0200082D0200082D02000813
:100110002D0200082D0200082D0200082D02000803
:100120002D0200082D0200082D0200082D020008F3
:100130002D0200082D0200082D0200082D020008E3
:100140002D0200082D0200082D0200082D020008D3
:100150002D0200082D0200082D0200082D020008C3
:100160002D0200082D0200082D0200082D020008B3
:100170002D0200082D0200082D0200082D020008A3
:100180002D0200082D02000880B584B000AF40F2B7
:100190004C03C2F20003BB6040F64043C2F20003CE
:1001A0007B60BB683B6007E03B684FF000021A6071
:1001B0003B6803F104033B607A683B689A42F3D8DA
:1001C00000F07AF900F060F8F86000F0BDF9F86826
:1001D00000F0E2F980B584B000AF41F2A033C0F680
:1001E0000003FB6040F20003C2F20003BB6040F278
:1001F0004C03C2F200037B60BB683B600BE0FB6812
:100200001A683B681A603B6803F104033B60FB68B3
:1002100003F10403FB607A683B689A42EFD800F070
:10022000C1F907F11007BD4680BD00BF80B400AF23
:10023000FEE700BF80B400AFFEE700BF80B4C3B0EC
:1002400000AF4FF00003C7F80431FEE780B400AF01
:10025000FEE700BF80B400AFFEE700BF80B400AF90
:10026000FEE700BF80B400AFFEE700BF80B400AF80
:10027000FEE700BF80B400AFFEE700BF80B400AF70
:04028000FEE700BFD6
:04028400D501000898
:1002880080B582B002AF00F0C7FD4FF007030093BE
:100298004FF48073019340F2F930C0F6000040F249
:1002A8006001C2F200014FF0000240F20003C2F206
:1002B800000300F0B9FE4FF0080300934FF4807379
:1002C800019340F21140C0F6000040F26041C2F2D2
:1002D80000014FF0010240F20803C2F2000300F0EF
:1002E800A3FE4FF0080300934FF48073019340F28C
:1002F8002940C0F6000040F26061C2F200014FF0F0
:10030800030240F21003C2F2000300F08DFE4FF02A
:10031800080300934FF48073019340F24140C0F604
:10032800000040F26051C2F200014FF0090240F2B1
:100338001803C2F2000300F077FE4FF008030093A1
:100348004FF48073019340F25940C0F6000040F624
:100358006001C2F200014FF0070240F22003C2F22E
:10036800000300F061FE4FF0080300934FF4807320
:10037800019340F27140C0F6000040F26021C2F2E1
:1003880000014FF0020240F22803C2F2000300F01D
:100398004BFE4FF0080300934FF48073019340F233
:1003A8008940C0F6000040F26031C2F200014FF00F
:1003B8000C0240F23003C2F2000300F035FE4FF0A9
:1003C800080300934FF48073019340F2A140C0F6F4
:1003D800000040F26011C2F200014FF0080240F242
:1003E8003803C2F2000300F01FFE00F0CFFDFEE765
:1003F80080B485B000AF78604FF00003FB60FB6805
:1004080003F10103FB60FAE780B485B000AF7860C0
:100418004FF00003FB60FB6803F10103FB60FAE7A0
:1004280080B485B000AF78604FF00003FB60FB68D4
:1004380003F10103FB60FAE780B485B000AF786090
:100448004FF00003FB60FB6803F10103FB60FAE770
:1004580080B485B000AF78604FF00003FB60FB68A4
:1004680003F10103FB60FAE780B485B000AF786060
:100478004FF00003FB60FB6803F10103FB60FAE740
:1004880080B485B000AF78604FF00003FB60FB6874
:1004980003F10103FB60FAE780B485B000AF786030
:1004A8004FF00003FB60FB6803F10103FB60FAE710
:1004B80080B582B000AF40F28822C0F6000240F258
:1004C8008423C0F60003D31A4FEAA3033B604FF01E
:1004D80000037B600BE040F28423C0F600037A68D7
:1004E80053F8223098477B6803F101037B607A68F0
:1004F8003B689A42EFD340F28822C0F6000240F2ED
:100508008823C0F60003D31A4FEAA3033B604FF0D9
:1005180000037B600BE040F28823C0F600037A6892
:1005280053F8223098477B6803F101037B607A68AF
:100538003B689A42EFD307F10807BD4680BD00BF6C
:1005480080B582B000AF40F28822C0F6000240F2C7
:100558008823C0F60003D31A4FEAA3033B603B6825
:100568007B600DE07B6803F1FF3240F28823C0F620
:10057800000353F8223098477B6803F1FF337B6010
:100588007B68002BEED107F10807BD4680BD00BF90
:1005980080B483B000AF7860FEE700BF80B500AFDD
:1005A8004FF46053C4F202034FF46052C4F20202E3
:1005B800126842F001021A604FF46053C4F2020359
:1005C8004FF000029A604FF46053C4F202034FF4F4
:1005D8006052C4F20202126822F0847222F480325D
:1005E8001A604FF46053C4F2020343F21002C2F2DD
:1005F80000425A604FF46053C4F202034FF4605251
:10060800C4F20202126822F480221A604FF4605386
:10061800C4F202034FF00002DA6000F009F84FF468
:100628006D43CEF200034FF000629A6080BD00BFB8
:1006380080B483B000AF4FF000037B604FF000033D
:100648003B604FF46053C4F202034FF46052C4F2AB
:100658000202126842F480321A604FF46053C4F206
:1006680002031B6803F400333B607B6803F101035A
:100678007B603B68002B03D17B68B3F5A04FECD1BE
:100688004FF46053C4F202031B6803F40033002BD9
:1006980003D04FF001033B6002E04FF000033B60E2
:1006A8003B68012B40F082804FF46053C4F2020390
:1006B8004FF46052C4F20202126C42F080521A6483
:1006C8004FF4E043C4F200034FF4E042C4F20002E6
:1006D800126842F440421A604FF46053C4F20203B5
:1006E8004FF46052C4F2020292689A604FF4605369
:1006F800C4F202034FF46052C4F20202926842F458
:1007080000429A604FF46053C4F202034FF46052FF
:10071800C4F20202926842F4A0529A604FF4605305
:10072800C4F2020345F21942C0F240725A604FF413
:100738006053C4F202034FF46052C4F2020212681A
:1007480042F080721A6000BF4FF46053C4F2020393
:100758001B6803F00073002BF6D04FF47053C4F2FB
:10076800020340F205721A604FF46053C4F20203A8
:100778004FF46052C4F20202926822F003029A60B7
:100788004FF46053C4F202034FF46052C4F2020201
:10079800926842F002029A6000BF4FF46053C4F2BC
:1007A80002039B6803F00C03082BF6D107F10C0732
:1007B800BD4680BC704700BF72B636490A6842F42D
:1007C80000720A603449002241F8042B0860043999
:1007D80003220A603149FF20087062B67047EFF3C0
:1007E800108072B6704780F3108862B6704772B690
:1007F8002B485FF08051016062B6704772B6284896
:100808005FF08051016062B670471EF0040F08BFA8
:1008180000F01DB823480068016811F0010F18BFE7
:1008280000F025B820480068EFF3098121E9F00FAE
:1008380081611C4800688169B1E8F00F81F309887B
:1008480018480068184908604EF0040E70470224E2
:1008580084F31488BFF36F8F12480068016821F091
:1008680001010160816981F30988FFF7E9BF0E483A
:100878000068EFF3098121E9F00F816109480068F8
:10088800016821F001010160816981F30988FFF79E
:10089800D7BF000014ED00E010E000E022ED00E01A
:1008A80004ED00E0500000204C00002080B483B02C
:1008B80000AF78607B689B69A3F104027B689A614A
:1008C8007B689B694FF080721A607B689B69A3F113
:1008D80004027B689A617B689B697A68D2691A60AE
:1008E8007B689B69A3F104027B689A617B689B69BA
:1008F8006FF002021A607B689B69A3F104027B68AF
:100908009A617B689B694FF000021A607B689B695B
:10091800A3F104027B689A617B689B694FF000022F
:100928001A607B689B69A3F104027B689A617B6803
:100938009B694FF000021A607B689B69A3F104026F
:100948007B689A617B689B694FF000021A607B683C
:100958009B69A3F104027B689A617B689B694FF0ED
:1009680000021A6007F10C07BD4680BC704700BF43
:1009780080B582B000AF4FF000037B604FF00003FA
:10098800FB7040F66013C2F2000340F66C12C2F22C
:1009980000021A6040F66013C2F2000340F66C12BF
:1009A800C2F200025A6040F66013C2F200034FF030
:1009B80000029A7240F66013C2F200034FF0000280
:1009C8005A7240F66013C2F200035A7A40F6601376
:1009D800C2F200031A724FF00003FB7077E0FB7855
:1009E800082B13D1F97840F66C12C2F200020B46BC
:1009F8004FEA43035B184FEA8303D31803F1080255
:100A080040F66C13C2F2000313601CE0F978FB781F
:100A180003F1010213464FEA43039B184FEA83038D
:100A280040F66C12C2F20002981840F66C12C2F23C
:100A380000020B464FEA43035B184FEA8303D318BF
:100A480003F108031860F97840F66C12C2F200024C
:100A58000B464FEA43035B184FEA8303D3184FF062
:100A680000021A60FB78002B10D1F97840F66C125E
:100A7800C2F200020B464FEA43035B184FEA8303B6
:100A8800D31803F10403344A1A601CE0F978FB78A0
:100A980003F1FF3213464FEA43039B184FEA8303DF
:100AA80040F66C12C2F20002981840F66C12C2F2BC
:100AB80000020B464FEA43035B184FEA8303D3183F
:100AC80003F104031860FB7803F10103FB70FB7862
:100AD800082B84D900F0AAFB786032E07B68DB7BC6
:100AE800002B2BD140F66013C2F200035B687A68D2
:100AF8001A6040F66013C2F200035B689A6840F619
:100B08006013C2F200035A6040F66013C2F2000399
:100B18005B7A03F10103DAB240F66013C2F2000314
:100B28005A7240F66013C2F200039B7A03F1010384
:100B3800DAB240F66013C2F200039A727B681B6A4D
:100B48007B607B68002BC9D14FF00003184607F182
:100B58000807BD4680BD00BFCC09002080B485B021
:100B680000AF786040F66013C2F200031B681B6890
:100B7800FB6040F66013C2F200039B7A002B06D19B
:100B88007B684FF008021A704FF0000339E040F616
:100B98006013C2F200031B689A6840F66013C2F241
:100BA80000031A6040F66013C2F200039B7A03F157
:100BB800FF33DAB240F66013C2F200039A7240F6CD
:100BC8006013C2F200031B7A03F1010148F639638E
:100BD800C3F6E30383FB01234FEA63024FEAE173A1
:100BE800D21A13464FEAC3039B18CA1AD2B240F668
:100BF8006013C2F200031A727B684FF000021A7089
:100C0800FB68184607F11407BD4680BC704700BF53
:100C180080B400AF40F66013C2F200039B7A002B49
:100C280002D04FF00A0301E04FF008031846BD4612
:100C380080BC704780B584B000AF03463960FB7153
:100C48004FF00003FB60FFF7E3FF0346082B06D1D4
:100C58003B684FF008021A704FF0000329E040F695
:100C68006013C2F200031B7AFA799A420ED240F658
:100C78006013C2F200035B7AFA799A4206D93B689C
:100C88004FF009021A704FF0000312E0F97940F6AC
:100C98006C12C2F200020B464FEA43035B184FEA9C
:100CA8008303D3181B68FB603B684FF000021A707F
:100CB800FB68184607F11007BD4680BD80B584B0B3
:100CC80000AF0346FB714FF00003FB73FFF7A0FF73
:100CD8000346082B02D14FF0080397E040F6601353
:100CE800C2F200031B7AFA799A420AD240F66013DC
:100CF800C2F200035B7AFA799A4202D94FF00B03E9
:100D080084E0FB79FB7344E0F87BFB7B03F1010192
:100D180048F63963C3F6E30383FB01234FEA630212
:100D28004FEAE173D21A13464FEAC3039B18CA1A53
:100D380040F66C11C2F2000113464FEA43039B18B8
:100D48004FEA8303CB18196840F66C12C2F200020E
:100D580003464FEA43031B184FEA8303D31819606D
:100D6800FB7B03F10103FB73FB7903F1010148F6F7
:100D78003963C3F6E30383FB01234FEA63024FEAB7
:100D8800E173D21A13464FEAC3039B18CA1A1346D3
:100D9800FB7140F66013C2F200035B7AFA7B9A4259
:100DA800B2D940F66013C2F200035B685A6840F695
:100DB8006013C2F200035A6040F66013C2F20003E7
:100DC8005B7A03F1FF33DAB240F66013C2F2000334
:100DD8005A7240F66013C2F200035B7A082B06D9F8
:100DE80040F66013C2F200034FF008025A7240F650
:100DF8006013C2F200039B7A03F1FF33DAB240F6C4
:100E08006013C2F200039A724FF00003184607F10C
:100E18001007BD4680BD00BF80B500AF00F0F6F8F2
:100E280040F25403C2F200034FF000021A604FF080
:100E38000003184680BD00BF80B584B000AF4FF0F6
:100E48000003BB604FF000037B604FF00003FB73AF
:100E58004FF00003BB734FF00003FB7040F25003E8
:100E6800C2F200034FF000021A6040F24003C2F2DF
:100E780000031B78002B40F0858040F66013C2F217
:100E880000039B7A002B6BD040F66013C2F200037C
:100E98001B7AFB7331E0FFF7A2FC7860FA7B07F15D
:100EA800030310461946FFF7C5FEB86040F2500329
:100EB800C2F200031B68002B06D140F25003C2F2B5
:100EC8000003BA681A6011E040F25003C2F200034E
:100ED8001B685A7BBB685B7B9A4207D940F2500378
:100EE800C2F20003BA681A60FB7BBB73FB7B03F199
:100EF8000103FB737868FFF776FC40F66013C2F2D3
:100F080000035B7AFA7B9A42C5D340F66013C2F2BB
:100F180000031B7ABA7B9A4206D107F103031846ED
:100F2800FFF71CFEB86003E0BB7B1846FFF7C6FE60
:100F3800FFF755FC786040F24003C2F200034FF01F
:100F4800AA021A7040F25003C2F200031B684FF065
:100F58000302DA73FFF74BFC7868FFF744FC11E0F3
:100F680040F24C03C2F200031B684FF00302DA732D
:100F780040F24C03C2F200031A6840F25003C2F276
:100F880000031A6007F11007BD4680BD80B582B026
:100F980000AF4FF00003FB704FF000037B6000F0E0
:100FA80045F9786005E07868FFF780FC7B681B6A84
:100FB8007B607B68002BF6D1FFF7DAFC07F10303AF
:100FC8001846FFF7CBFD024640F24C03C2F200037D
:100FD8001A6041F62900C0F21700FFF7EDFB40F256
:100FE8004003C2F200034FF000021A70FFF724FF1B
:100FF800FEE700BF80B400AF40F25403C2F2000322
:101008001B681846BD4680BC704700BF80B500AF5E
:1010180040F6D820C2F200004FF000014FF4B4723D
:1010280000F024F980BD00BF80B588B000AFF8603B
:10103800B9603B601346FB7140F6D823C2F2000347
:10104800FB6140F6D823C2F200037B614FF0000336
:10105800FB7697F82830202B02D94FF00503DBE008
:101068004FF00003FB7652E0FB691B69002B37D178
:10107800FA68FB69DA61FB6A4FEA930303F1FF330D
:101088004FEA8303BA68D218FB699A61FB791F2B70
:1010980002D94FF00303BFE0FB7903F01F03DAB274
:1010A800FB695A73FB693A685A61FB69FA7E1A73DD
:1010B800FFF7A0FF0246FB699A60FB694FF009023F
:1010C8005A60FB694FF00002DA73FB694FF0FF02C8
:1010D8001A61FB691B6843F00102FB691A6019E099
:1010E800FA7E13464FEA83039B184FEAC30340F680
:1010F800D822C2F200029B18FB61FB7E072B02D9A3
:101108004FF0020388E0FB7E03F10103FB76FB7ED0
:10111800082BA9D9434BFB61FB691B69002B4AD1FA
:10112800FA6941F24923C0F60003D361FB693E4ADC
:101138009A61FB694FF020025A73FA6940F244033E
:10114800C2F200035361FB694FF009021A73FFF7FB
:1011580051FF0246FB699A60FB694FF009025A6029
:10116800FB694FF00002DA73FB694FF0FF021A6166
:10117800FA7E13464FEA83039B184FEAC30340F6EF
:10118800D822C2F200029A18FB691A62FB691B6A2C
:10119800FB61FB69234A5A62FB694FF000021A623D
:1011A800FB691B6843F00102FB691A6025E0FB69D3
:1011B8001B6AFB6100E000BFFB691B6A002BF6D1CC
:1011C800FB7E03F1FF3213464FEA83039B184FEA75
:1011D800C30340F6D822C2F200029A18FB691A62C9
:1011E800FB691B6A7B617B69FA695A62FB691B6A46
:1011F800FB61FB694FF000021A6240F25803C2F229
:1012080000031B7803F10103DAB240F25803C2F27B
:1012180000031A704FF00003184607F12007BD4677
:1012280080BD00BF180C0020D40A002080B400AF95
:10123800024B1846BD4680BC704700BF180C002002
:1012480080B584B000AF78604FF00003FB604FF0CA
:101258000003BB60FFF7C3FAB860FB6803F1010342
:10126800FB60B868FFF7BFFAF4E700BFF0B4840783
:10127800034600F08E80541E002A00F08880E5079F
:10128800CEB211D41A46671E02F8016B13461546F2
:1012980092070FD0002C7AD003F8016B9A073C46CE
:1012A8001D4607D0013CEDE7034603F8016B9A079A
:1012B8001D46F7D1032C52D9CEB246EA06270F2C89
:1012C80047EA07432DD9A4F1100217460F2FC2F39E
:1012D80000162B606B60AB60EB6005F1100216D94D
:1012E8003EB1103F136053609360D36010320F2FEC
:1012F8000DD9203F02F11006136053609360D3604C
:10130800136153619361D36120320F2FF1D8A4F197
:10131800100222F00F0204F00F041032032C1544BF
:101328001DD9271F3E462A46032E42F8043BC7F321
:1013380080070DD927B1043E032E42F8043B07D994
:101348001746083E47F8043B53603A1D032EF7D86A
:10135800231F23F00302131D04F00304ED18B4B196
:101368002B46C9B203F8011B2C19ED436219A3429D
:1013780002F001050BD01DB103F8011BA34206D0F2
:101388001A4602F8011B5970531CA342F8D1F0BC4D
:081398007047054614468DE77D
:1013A0005461736B547279005461736B5472793267
:1013B0005461736B547279335461736B5472793422
:1013C0005461736B547279355461736B547279360E
:1013D0005461736B547279375461736B54727938FA
:0C13E000AA0000005461736B49646C6546
:040000050800018965
:00000001FF
