:020000040800F2
:100000000000022089010008350200083D020008B6
:100010004D020008550200085D02000800000000C3
:100020000000000000000000000000006502000861
:100030006D0200080000000093080008B1100008DD
:100040002D0200082D0200082D0200082D020008D4
:100050002D0200082D0200082D0200082D020008C4
:100060002D0200082D0200082D0200082D020008B4
:100070002D0200082D0200082D0200082D020008A4
:100080002D0200082D0200082D0200082D02000894
:100090002D0200082D0200082D0200082D02000884
:1000A0002D0200082D0200082D0200082D02000874
:1000B0002D0200082D0200082D0200082D02000864
:1000C0002D0200082D0200082D0200082D02000854
:1000D0002D0200082D0200082D0200082D02000844
:1000E0002D0200082D0200082D0200082D02000834
:1000F0002D0200082D0200082D0200082D02000824
:100100002D0200082D0200082D0200082D02000813
:100110002D0200082D0200082D0200082D02000803
:100120002D0200082D0200082D0200082D020008F3
:100130002D0200082D0200082D0200082D020008E3
:100140002D0200082D0200082D0200082D020008D3
:100150002D0200082D0200082D0200082D020008C3
:100160002D0200082D0200082D0200082D020008B3
:100170002D0200082D0200082D0200082D020008A3
:100180002D0200082D02000880B584B000AF40F2B7
:100190004403C2F20003BB6040F65433C2F20003D2
:1001A0007B60BB683B6007E03B684FF000021A6071
:1001B0003B6803F104033B607A683B689A42F3D8DA
:1001C00000F0BAF900F060F8F86000F0FDF9F868A6
:1001D00000F022FA80B584B000AF41F25C53C0F663
:1001E0000003FB6040F20003C2F20003BB6040F278
:1001F0004403C2F200037B60BB683B600BE0FB681A
:100200001A683B681A603B6803F104033B60FB68B3
:1002100003F10403FB607A683B689A42EFD800F070
:1002200001FA07F11007BD4680BD00BF80B400AFE2
:10023000FEE700BF80B400AFFEE700BF80B4C3B0EC
:1002400000AF4FF00003C7F80431FEE780B400AF01
:10025000FEE700BF80B400AFFEE700BF80B400AF90
:10026000FEE700BF80B400AFFEE700BF80B400AF80
:10027000FEE700BF80B400AFFEE700BF80B400AF70
:04028000FEE700BFD6
:04028400D501000898
:1002880080B582B002AF00F029FE4FF0070300935B
:100298004FF48073019340F2CD30C0F6000040F275
:1002A800A801C2F200014FF0000240F20003C2F2BE
:1002B800000300F0B5FF4FF0080300934FF480737C
:1002C800019340F20140C0F6000040F2A841C2F29A
:1002D80000014FF0010240F20803C2F2000300F0EF
:1002E8009FFF4FF0080300934FF48073019340F28F
:1002F8003540C0F6000040F2A861C2F200014FF09C
:10030800030240F21003C2F2000300F089FF4FF02D
:10031800080300934FF48073019340F26940C0F6DC
:10032800000040F2A851C2F200014FF0090240F269
:100338001803C2F2000300F073FF4FF008030093A4
:100348004FF48073019340F29D40C0F6000040F2E4
:10035800A871C2F200014FF0070240F22003C2F276
:10036800000300F05DFF4FF0080300934FF4807323
:10037800019340F2D140C0F6000040F2A821C2F239
:1003880000014FF0020240F22803C2F2000300F01D
:1003980047FF4FF0080300934FF48073019340F236
:1003A8000550C0F6000040F2A831C2F200014FF03B
:1003B8000C0240F23003C2F2000300F031FF00F0FB
:1003C8003FFEFEE780B483B000AF786040F28C0354
:1003D800C2F200034FF0FA021A6040F29003C2F230
:1003E80000034FF0E1021A6040F29403C2F20003E6
:1003F8004FF4AF721A60E9E780B483B000AF786059
:1004080040F28003C2F200034FF064021A6040F227
:100418008403C2F200034FF096021A6040F2880388
:10042800C2F200034FF0AF021A60E9E780B483B06C
:1004380000AF786040F27403C2F200034FF0640228
:100448001A6040F27803C2F200034FF096021A6075
:1004580040F27C03C2F200034FF0AF021A60E9E7F2
:1004680080B483B000AF786040F26803C2F2000342
:100478004FF064021A6040F26C03C2F200034FF0BE
:1004880096021A6040F27003C2F200034FF0AF0206
:100498001A60E9E780B483B000AF786040F25C038B
:1004A800C2F200034FF064021A6040F26003C2F225
:1004B80000034FF096021A6040F26403C2F2000390
:1004C8004FF0AF021A60E9E780B483B000AF7860FC
:1004D80040F25003C2F200034FF064021A6040F287
:1004E8005403C2F200034FF096021A6040F2580318
:1004F800C2F200034FF0AF021A60E9E780B483B09C
:1005080000AF786040F24403C2F200034FF0640287
:100518001A6040F24803C2F200034FF096021A60D4
:1005280040F24C03C2F200034FF0AF021A60E9E751
:1005380080B582B000AF40F28822C0F6000240F2D7
:100548008423C0F60003D31A4FEAA3033B604FF09D
:1005580000037B600BE040F28423C0F600037A6856
:1005680053F8223098477B6803F101037B607A686F
:100578003B689A42EFD340F28822C0F6000240F26C
:100588008823C0F60003D31A4FEAA3033B604FF059
:1005980000037B600BE040F28823C0F600037A6812
:1005A80053F8223098477B6803F101037B607A682F
:1005B8003B689A42EFD307F10807BD4680BD00BFEC
:1005C80080B582B000AF40F28822C0F6000240F247
:1005D8008823C0F60003D31A4FEAA3033B603B68A5
:1005E8007B600DE07B6803F1FF3240F28823C0F6A0
:1005F800000353F8223098477B6803F1FF337B6090
:100608007B68002BEED107F10807BD4680BD00BF0F
:1006180080B483B000AF7860FEE700BF80B500AF5C
:100628004FF46053C4F202034FF46052C4F2020262
:10063800126842F001021A604FF46053C4F20203D8
:100648004FF000029A604FF46053C4F202034FF473
:100658006052C4F20202126822F0847222F48032DC
:100668001A604FF46053C4F2020343F21002C2F25C
:1006780000425A604FF46053C4F202034FF46052D0
:10068800C4F20202126822F480221A604FF4605306
:10069800C4F202034FF00002DA6000F009F84FF4E8
:1006A8006D43CEF200034FF000629A6080BD00BF38
:1006B80080B483B000AF4FF000037B604FF00003BD
:1006C8003B604FF46053C4F202034FF46052C4F22B
:1006D8000202126842F480321A604FF46053C4F286
:1006E80002031B6803F400333B607B6803F10103DA
:1006F8007B603B68002B03D17B68B3F5A04FECD13E
:100708004FF46053C4F202031B6803F40033002B58
:1007180003D04FF001033B6002E04FF000033B6061
:100728003B68012B40F082804FF46053C4F202030F
:100738004FF46052C4F20202126C42F080521A6402
:100748004FF4E043C4F200034FF4E042C4F2000265
:10075800126842F440421A604FF46053C4F2020334
:100768004FF46052C4F2020292689A604FF46053E8
:10077800C4F202034FF46052C4F20202926842F4D7
:1007880000429A604FF46053C4F202034FF460527F
:10079800C4F20202926842F4A0529A604FF4605385
:1007A800C4F2020345F21942C0F240725A604FF493
:1007B8006053C4F202034FF46052C4F2020212689A
:1007C80042F080721A6000BF4FF46053C4F2020313
:1007D8001B6803F00073002BF6D04FF47053C4F27B
:1007E800020340F205721A604FF46053C4F2020328
:1007F8004FF46052C4F20202926822F003029A6037
:100808004FF46053C4F202034FF46052C4F2020280
:10081800926842F002029A6000BF4FF46053C4F23B
:1008280002039B6803F00C03082BF6D107F10C07B1
:10083800BD4680BC704700BF72B636490A6842F4AC
:1008480000720A603449002241F8042B0860043918
:1008580003220A603149FF20087062B67047EFF33F
:10086800108072B6704780F3108862B6704772B60F
:100878002B485FF08051016062B6704772B6284815
:100888005FF08051016062B670471EF0040F08BF28
:1008980000F01DB823480068016811F0010F18BF67
:1008A80000F025B820480068EFF3098121E9F00F2E
:1008B80081611C4800688169B1E8F00F81F30988FB
:1008C80018480068184908604EF0040E7047022462
:1008D80084F31488BFF36F8F12480068016821F011
:1008E80001010160816981F30988FFF7E9BF0E48BA
:1008F8000068EFF3098121E9F00F81610948006878
:10090800016821F001010160816981F30988FFF71D
:10091800D7BF000014ED00E010E000E022ED00E099
:1009280004ED00E09C0000209800002080B483B013
:1009380000AF78607B689B69A3F104027B689A61C9
:100948007B689B694FF080721A607B689B69A3F192
:1009580004027B689A617B689B697A68D2691A602D
:100968007B689B69A3F104027B689A617B689B6939
:100978006FF002021A607B689B69A3F104027B682E
:100988009A617B689B694FF000021A607B689B69DB
:10099800A3F104027B689A617B689B694FF00002AF
:1009A8001A607B689B69A3F104027B689A617B6883
:1009B8009B694FF000021A607B689B69A3F10402EF
:1009C8007B689A617B689B694FF000021A607B68BC
:1009D8009B69A3F104027B689A617B689B694FF06D
:1009E80000021A6007F10C07BD4680BC704700BFC3
:1009F80080B582B000AF4FF000037B604FF000037A
:100A0800FB7040F6A803C2F2000340F6B402C2F23B
:100A180000021A6040F6A803C2F2000340F6B402CE
:100A2800C2F200025A6040F6A803C2F200034FF077
:100A380000029A7240F6A803C2F200034FF00002C7
:100A48005A7240F6A803C2F200035A7A40F6A80385
:100A5800C2F200031A724FF00003FB7077E0FB78D4
:100A6800072B13D1F97840F6B402C2F200020B4604
:100A78004FEA43035B184FEA8303D31803F10802D4
:100A880040F6B403C2F2000313601CE0F978FB7867
:100A980003F1010213464FEA43039B184FEA83030D
:100AA80040F6B402C2F20002981840F6B402C2F24C
:100AB80000020B464FEA43035B184FEA8303D3183F
:100AC80003F108031860F97840F6B402C2F2000294
:100AD8000B464FEA43035B184FEA8303D3184FF0E2
:100AE80000021A60FB78002B10D1F97840F6B402A6
:100AF800C2F200020B464FEA43035B184FEA830336
:100B0800D31803F10403344A1A601CE0F978FB781F
:100B180003F1FF3213464FEA43039B184FEA83035E
:100B280040F6B402C2F20002981840F6B402C2F2CB
:100B380000020B464FEA43035B184FEA8303D318BE
:100B480003F104031860FB7803F10103FB70FB78E1
:100B5800072B84D900F058FC786032E07B68DB7B97
:100B6800002B2BD140F6A803C2F200035B687A6819
:100B78001A6040F6A803C2F200035B689A6840F660
:100B8800A803C2F200035A6040F6A803C2F20003A9
:100B98005B7A03F10103DAB240F6A803C2F200035C
:100BA8005A7240F6A803C2F200039B7A03F10103CC
:100BB800DAB240F6A803C2F200039A727B681B6A95
:100BC8007B607B68002BC9D14FF00003184607F102
:100BD8000807BD4680BD00BF0809002080B483B067
:100BE80000AF786040F6A803C2F200039B7A072B97
:100BF80002D94FF007033AE040F6A803C2F2000317
:100C08005B687A681A6040F6A803C2F200035B6862
:100C18009A6840F6A803C2F200035A6040F6A80397
:100C2800C2F200039B7A03F10103DAB240F6A8038B
:100C3800C2F200039A7240F6A803C2F200035B7A7C
:100C480003F101024FF00703C8F200031340002B21
:100C580005DA03F1FF3363F0070303F10103DAB2A6
:100C680040F6A803C2F200035A724FF00003184678
:100C780007F10C07BD4680BC704700BF80B485B043
:100C880000AF786040F6A803C2F200031B681B6837
:100C9800FB6040F6A803C2F200039B7A002B06D142
:100CA8007B684FF008021A704FF0000336E040F6F8
:100CB800A803C2F200031B689A6840F6A803C2F2B0
:100CC80000031A6040F6A803C2F200039B7A03F1FE
:100CD800FF33DAB240F6A803C2F200039A7240F674
:100CE800A803C2F200031B7A03F101024FF00703C5
:100CF800C8F200031340002B05DA03F1FF3363F059
:100D0800070303F10103DAB240F6A803C2F20003B5
:100D18001A727B684FF000021A70FB68184607F1D8
:100D28001407BD4680BC704780B485B000AF034649
:100D38003960FB714FF00003FB6040F6A803C2F274
:100D480000031B7AFA799A420ED240F6A803C2F23F
:100D580000035B7AFA799A4206D93B684FF0090298
:100D68001A704FF0000312E0F97940F6B402C2F2AB
:100D780000020B464FEA43035B184FEA8303D3187C
:100D88001B68FB603B684FF000021A70FB6818464E
:100D980007F11407BD4680BC704700BF80B485B01A
:100DA80000AF0346FB714FF00003FB7340F6A80346
:100DB800C2F200031B7AFA799A420AD240F6A803D3
:100DC800C2F200035B7AFA799A4202D94FF00B0318
:100DD8007EE0FB79FB733EE0F97BFB7B03F10102CC
:100DE8004FF00703C8F200031340002B05DA03F1A4
:100DF800FF3363F0070303F10103184640F6B4021A
:100E0800C2F2000203464FEA43031B184FEA83036A
:100E1800D318186840F6B402C2F200020B464FEA33
:100E280043035B184FEA8303D3181860FB7B03F175
:100E38000103FB73FB7903F101024FF00703C8F2CA
:100E480000031340002B05DA03F1FF3363F00703B7
:100E580003F10103FB7140F6A803C2F200035B7AB9
:100E6800FA7B9A42B8D940F6A803C2F200035B683D
:100E78005A6840F6A803C2F200035A6040F6A80375
:100E8800C2F200035B7A03F1FF33DAB240F6A8033B
:100E9800C2F200035A7240F6A803C2F200035B7A5A
:100EA800072B06D940F6A803C2F200034FF0070249
:100EB8005A7240F6A803C2F200039B7A03F1FF338B
:100EC800DAB240F6A803C2F200039A724FF00003A8
:100ED800184607F11407BD4680BC704780B500AFBF
:100EE80000F090F940F2A003C2F200034FF00002B4
:100EF8001A604FF00003184680BD00BF80B584B06B
:100F080000AF4FF00003BB604FF000037B604FF071
:100F18000003FB734FF00003BB734FF00003FB703B
:100F280040F29C03C2F200034FF000021A6040F244
:100F38003803C2F200031B78002B7DD140F6A803CA
:100F4800C2F200039B7A002B64D040F6A803C2F2D9
:100F580000031B7AFB7331E0FFF781FC7860FA7BB2
:100F680007F1030310461946FFF7DEFEB86040F2AA
:100F78009C03C2F200031B68002B06D140F29C03BD
:100F8800C2F20003BA681A6011E040F29C03C2F290
:100F980000031B685A7BBB685B7B9A4207D940F207
:100FA8009C03C2F20003BA681A60FB7BBB73FB7B2D
:100FB80003F10103FB737868FFF755FC40F6A803BB
:100FC800C2F200035B7AFA7B9A42C5D340F6A803C3
:100FD800C2F200035B7ABA7B9A4206D107F1030397
:100FE8001846FFF74BFEB86003E0BB7B1846FFF7D7
:100FF800D5FEFFF734FC786040F29C03C2F2000390
:101008001B684FF00302DA73FFF731FC7868FFF7CB
:101018002AFC11E040F29803C2F200031B684FF06B
:101028000302DA7340F29803C2F200031A6840F22E
:101038009C03C2F200031A6007F11007BD4680BD89
:1010480080B582B000AF4FF00003FB704FF0000393
:101058007B6000F0D9F9786005E07868FFF766FCF6
:101068007B681B6A7B607B68002BF6D1FFF7C0FCAE
:1010780007F103031846FFF701FE024640F2980302
:10108800C2F200031A604FF40240C0F21400FFF7E6
:10109800D3FB40F23803C2F200034FF000021A708B
:1010A800FFF72CFFFEE700BF80B582B000AF4FF01E
:1010B80000037B604FF000033B60FFF7D0FB386014
:1010C80040F23803C2F200034FF0AA021A7040F24D
:1010D800A003C2F200031B6803F1010240F2A0035F
:1010E800C2F200031A603868FFF7BDFB00F08CF904
:1010F800786040F2A003C2F200031A6840F2980335
:10110800C2F200031B689B68D31A072B65D940F20B
:101118009803C2F200031B684FF00102DA7340F231
:101128009803C2F200031A6840F2A003C2F2000357
:101138001B68936040F23803C2F200034FF00002CC
:101148001A704AE07B68DB7B002B43D040F2A00397
:10115800C2F200031A687B689B68D31A072B39D937
:101168007B684FF00002DA7340F2A003C2F200037A
:101178001A687B689A607B685A7B40F29803C2F2CF
:1011880000031B685B7B9A4221D940F29803C2F2A4
:1011980000031B68DB7B012B19D040F29803C2F2D5
:1011A80000031B684FF00102DA7340F29803C2F2A1
:1011B80000031A6840F2A003C2F200031B689360A0
:1011C80040F23803C2F200034FF000021A70786848
:1011D800FFF704FD7B681B6A7B607B68002BB1D13D
:1011E800FFF78CFE07F10807BD4680BD80B400AF4D
:1011F80040F2A003C2F200031B681846BD4680BC3B
:10120800704700BF80B500AF40F61420C2F200005E
:101218004FF000014FF4A07200F006F980BD00BF46
:1012280080B588B000AFF860B9603B601346FB71C9
:1012380040F61423C2F20003FB6140F61423C2F205
:1012480000037B614FF00003FB7697F82830202BD2
:1012580002D94FF00503CEE04FF00003FB7652E0D1
:10126800FB691B69002B37D1FA68FB69DA61FB6AF5
:101278004FEA930303F1FF334FEA8303BA68D218A6
:10128800FB699A61FB791F2B02D94FF00303B2E087
:10129800FB7903F01F03DAB2FB695A73FB693A68FA
:1012A8005A61FB69FA7E1A73FFF7A0FF0246FB69D1
:1012B8009A60FB694FF000025A60FB694FF0000228
:1012C800DA73FB694FF0FF021A61FB691B6843F090
:1012D8000102FB691A6019E0FA7E13464FEA83039C
:1012E8009B184FEAC30340F61422C2F200029B186F
:1012F800FB61FB7E062B02D94FF002037BE0FB7EED
:1013080003F10103FB76FB7E072BA9D93C4BFB615C
:10131800FB691B69002B4AD1FA6941F22543C0F6E3
:101328000003D361FB69374A9A61FB694FF02002D9
:101338005A73FA6940F23C03C2F200035361FB6935
:101348004FF008021A73FFF751FF0246FB699A60D3
:10135800FB694FF001025A60FB694FF00002DA7333
:10136800FB694FF0FF021A61FA7E13464FEA8303C6
:101378009B184FEAC30340F61422C2F200029A18DF
:10138800FB691A62FB691B6AFB61FB691C4A5A62AA
:10139800FB694FF000021A62FB691B6843F0010207
:1013A800FB691A6025E0FB691B6AFB6100E000BF6E
:1013B800FB691B6A002BF6D1FB7E03F1FF32134653
:1013C8004FEA83039B184FEAC30340F61422C2F284
:1013D80000029A18FB691A62FB691B6A7B617B69C8
:1013E800FA695A62FB691B6AFB61FB694FF00002EC
:1013F8001A624FF00003184607F12007BD4680BD6A
:101408002C0B0020100A002080B400AF024B1846B5
:10141800BD4680BC704700BF2C0B002080B483B051
:1014280000AF7860FEE700BFF0B48407034600F021
:101438008E80541E002A00F08880E507CEB211D4B1
:101448001A46671E02F8016B1346154692070FD01D
:10145800002C7AD003F8016B9A073C461D4607D04A
:10146800013CEDE7034603F8016B9A071D46F7D1E7
:10147800032C52D9CEB246EA06270F2C47EA074377
:101488002DD9A4F1100217460F2FC2F300162B60B6
:101498006B60AB60EB6005F1100216D93EB1103FEE
:1014A800136053609360D36010320F2F0DD9203F23
:1014B80002F11006136053609360D36013615361A7
:1014C8009361D36120320F2FF1D8A4F1100222F0DA
:1014D8000F0204F00F041032032C15441DD9271FE6
:1014E8003E462A46032E42F8043BC7F380070DD92F
:1014F80027B1043E032E42F8043B07D91746083E9D
:1015080047F8043B53603A1D032EF7D8231F23F0F6
:101518000302131D04F00304ED18B4B12B46C9B23D
:1015280003F8011B2C19ED436219A34202F00105CF
:101538000BD01DB103F8011BA34206D01A4602F8CE
:10154800011B5970531CA342F8D1F0BC70470546E3
:0415580014468DE7C1
:10155C005461736B547279005461736B54727932A9
:10156C005461736B547279335461736B5472793464
:10157C005461736B547279355461736B5472793650
:10158C005461736B54727937AA0000005461736B09
:04159C0049646C65CD
:040000050800018965
:00000001FF
