:020000040800F2
:100000000000022089010008350200083D020008B6
:100010004D020008550200085D02000800000000C3
:100020000000000000000000000000006502000861
:100030006D02000800000000BB0A0008DD05000892
:100040002D0200082D0200082D0200082D020008D4
:100050002D0200082D0200082D0200082D020008C4
:100060002D0200082D0200082D0200082D020008B4
:100070002D0200082D0200082D0200082D020008A4
:100080002D0200082D0200082D0200082D02000894
:100090002D0200082D0200082D0200082D02000884
:1000A0002D0200082D0200082D0200082D02000874
:1000B0002D0200082D0200082D0200082D02000864
:1000C0002D0200082D0200082D0200082D02000854
:1000D0002D0200082D0200082D0200082D02000844
:1000E0002D0200082D0200082D0200082D02000834
:1000F0002D0200082D0200082D0200082D02000824
:100100002D0200082D0200082D0200082D02000813
:100110002D0200082D0200082D0200082D02000803
:100120002D0200082D0200082D0200082D020008F3
:100130002D0200082D0200082D0200082D020008E3
:100140002D0200082D0200082D0200082D020008D3
:100150002D0200082D0200082D0200082D020008C3
:100160002D0200082D0200082D0200082D020008B3
:100170002D0200082D0200082D0200082D020008A3
:100180002D0200082D02000880B584B000AF40F2B7
:100190003803C2F20003BB6040F6B423C2F200038E
:1001A0007B60BB683B6007E03B684FF000021A6071
:1001B0003B6803F104033B607A683B689A42F3D8DA
:1001C00000F0D2FA00F060F8F86000F015FBF86873
:1001D00000F03AFB80B584B000AF40F68873C0F6FB
:1001E0000003FB6040F20003C2F20003BB6040F278
:1001F0003803C2F200037B60BB683B600BE0FB6826
:100200001A683B681A603B6803F104033B60FB68B3
:1002100003F10403FB607A683B689A42EFD800F070
:1002200019FB07F11007BD4680BD00BF80B400AFC9
:10023000FEE700BF80B400AFFEE700BF80B4C3B0EC
:1002400000AF4FF00003C7F80431FEE780B400AF01
:10025000FEE700BF80B400AFFEE700BF80B400AF90
:10026000FEE700BF80B400AFFEE700BF80B400AF80
:10027000FEE700BF80B400AFFEE700BF80B400AF70
:04028000FEE700BFD6
:04028400D501000898
:1002880080B582B002AF00F061FC4FF00703009325
:100298004FF48073019340F22560C0F6000040F2ED
:1002A8007401C2F200014FF0000240F20003C2F2F2
:1002B800000300F059FC4FF0080300934FF48073DB
:1002C800019340F25960C0F6000040F27441C2F256
:1002D80000014FF0010240F20803C2F2000300F0EF
:1002E80043FC4FF0080300934FF48073019340F2EE
:1002F8008D60C0F6000040F27461C2F200014FF058
:10030800030240F21003C2F2000300F02DFC4FF08C
:10031800080300934FF48073019340F2B960C0F66C
:10032800000040F27451C2F200014FF0090240F29D
:100338001803C2F2000300F017FC4FF00803009303
:100348004FF48073019340F2E560C0F6000040F27C
:100358007471C2F200014FF0070240F22003C2F2AA
:10036800000300F001FC4FF0080300934FF4807382
:10037800019340F21170C0F6000040F27421C2F2FD
:1003880000014FF0020240F22803C2F2000300F01D
:10039800EBFB4FF0080300934FF48073019340F296
:1003A8003D70C0F6000040F27431C2F200014FF017
:1003B8000C0240F23003C2F2000300F0D5FB40F219
:1003C8000800C2F200004FF0080100F0C5FC034627
:1003D800184600F011FD024640F26803C2F200031D
:1003E8001A6040F20000C2F200004FF0070100F06E
:1003F800B3FC0346184600F0FFFC024640F26C03CB
:10040800C2F200031A6040F26C03C2F200031A68D9
:1004180040F23803C2F200031A6040F26C03C2F2E1
:1004280000031B689A69A2F104029A619B694FF064
:1004380080721A6040F26C03C2F200031B689A696A
:10044800A2F104029A619A6940F26C03C2F20003B5
:100458001B68DB69136040F26C03C2F200031B687F
:100468009A69A2F104029A619B696FF002021A600C
:1004780040F26C03C2F200031B689A69A2F10402FD
:100488009A619B694FF000021A6040F26C03C2F255
:1004980000031B689A69A2F104029A619B694FF0F4
:1004A80000021A6040F26C03C2F200031B689A69EA
:1004B800A2F104029A619B694FF000021A6040F2AF
:1004C8006C03C2F200031B689A69A2F104029A61E4
:1004D8009B694FF000021A6040F26C03C2F20003FD
:1004E8001B689A69A2F104029A619B694FF00002A5
:1004F8001A6040F26803C2F200031B689A69A2F10D
:1005080004029A619B694FF080721A6040F2680396
:10051800C2F200031B689A69A2F104029A619A69FF
:1005280040F26803C2F200031B68DB69136040F203
:100538006803C2F200031B689A69A2F104029A6177
:100548009B696FF002021A6040F26803C2F200036E
:100558001B689A69A2F104029A619B694FF0000234
:100568001A6040F26803C2F200031B689A69A2F19C
:1005780004029A619B694FF000021A6040F2680316
:10058800C2F200031B689A69A2F104029A619B698E
:100598004FF000021A6040F26803C2F200031B68C1
:1005A8009A69A2F104029A619B694FF000021A60ED
:1005B80040F26803C2F200031B689A69A2F10402C0
:1005C8009A619B694FF000021A6044F2A01000F093
:1005D8004BFAFEE780B500AF40F26C03C2F20003AD
:1005E8001A6840F23803C2F200031A6040F2680346
:1005F800C2F200031A6840F26C03C2F200031A60E8
:1006080040F23803C2F200031A6840F26803C2F2EB
:1006180000031A6000F046FA80BD00BF80B483B0C2
:1006280000AF786040F25C03C2F200034FF0FA02B8
:100638001A6040F26003C2F200034FF0E1021A6050
:1006480040F26403C2F200034FF4AF721A60E9E7A4
:1006580080B483B000AF786040F25003C2F2000368
:100668004FF064021A6040F25403C2F200034FF0E4
:1006780096021A6040F25803C2F200034FF0AF022C
:100688001A60E9E780B483B000AF786040F24C03A9
:10069800C2F200031B6803F1010240F24C03C2F2EC
:1006A80000031A6007F10C07BD4680BC704700BF05
:1006B80080B483B000AF786040F24803C2F2000310
:1006C8001B6803F1010240F24803C2F200031A60FA
:1006D80007F10C07BD4680BC704700BF80B483B0EB
:1006E80000AF786040F24403C2F200031B6803F1D4
:1006F800010240F24403C2F200031A6007F10C073A
:10070800BD4680BC704700BF80B483B000AF78603E
:1007180040F24003C2F200031B6803F1010240F2F9
:100728004003C2F200031A6007F10C07BD4680BC03
:10073800704700BF80B483B000AF786040F23C03DC
:10074800C2F200031B6803F1010240F23C03C2F24B
:1007580000031A6007F10C07BD4680BC704700BF54
:1007680080B582B000AF40F28822C0F6000240F2A5
:100778008423C0F60003D31A4FEAA3033B604FF06B
:1007880000037B600BE040F28423C0F600037A6824
:1007980053F8223098477B6803F101037B607A683D
:1007A8003B689A42EFD340F28822C0F6000240F23A
:1007B8008823C0F60003D31A4FEAA3033B604FF027
:1007C80000037B600BE040F28823C0F600037A68E0
:1007D80053F8223098477B6803F101037B607A68FD
:1007E8003B689A42EFD307F10807BD4680BD00BFBA
:1007F80080B582B000AF40F28822C0F6000240F215
:100808008823C0F60003D31A4FEAA3033B603B6872
:100818007B600DE07B6803F1FF3240F28823C0F66D
:10082800000353F8223098477B6803F1FF337B605D
:100838007B68002BEED107F10807BD4680BD00BFDD
:1008480080B483B000AF7860FEE700BF80B500AF2A
:100858004FF46053C4F202034FF46052C4F2020230
:10086800126842F001021A604FF46053C4F20203A6
:100878004FF000029A604FF46053C4F202034FF441
:100888006052C4F20202126822F0847222F48032AA
:100898001A604FF46053C4F2020343F21002C2F22A
:1008A80000425A604FF46053C4F202034FF460529E
:1008B800C4F20202126822F480221A604FF46053D4
:1008C800C4F202034FF00002DA6000F009F84FF4B6
:1008D8006D43CEF200034FF000629A6080BD00BF06
:1008E80080B483B000AF4FF000037B604FF000038B
:1008F8003B604FF46053C4F202034FF46052C4F2F9
:100908000202126842F480321A604FF46053C4F253
:1009180002031B6803F400333B607B6803F10103A7
:100928007B603B68002B03D17B68B3F5A04FECD10B
:100938004FF46053C4F202031B6803F40033002B26
:1009480003D04FF001033B6002E04FF000033B602F
:100958003B68012B40F082804FF46053C4F20203DD
:100968004FF46052C4F20202126C42F080521A64D0
:100978004FF4E043C4F200034FF4E042C4F2000233
:10098800126842F440421A604FF46053C4F2020302
:100998004FF46052C4F2020292689A604FF46053B6
:1009A800C4F202034FF46052C4F20202926842F4A5
:1009B80000429A604FF46053C4F202034FF460524D
:1009C800C4F20202926842F4A0529A604FF4605353
:1009D800C4F2020345F21942C0F240725A604FF461
:1009E8006053C4F202034FF46052C4F20202126868
:1009F80042F080721A6000BF4FF46053C4F20203E1
:100A08001B6803F00073002BF6D04FF47053C4F248
:100A1800020340F205721A604FF46053C4F20203F5
:100A28004FF46052C4F20202926822F003029A6004
:100A38004FF46053C4F202034FF46052C4F202024E
:100A4800926842F002029A6000BF4FF46053C4F209
:100A580002039B6803F00C03082BF6D107F10C077F
:100A6800BD4680BC704700BF72B632490A6842F47E
:100A780000720A603049002241F8042B08600439EA
:100A880003220A602D49FF20087062B6704772B6CB
:100A9800704762B6704772B629485FF080510160AE
:100AA80062B6704772B626485FF08051016062B640
:100AB80070471EF0040F08BF00F019B821480068FD
:100AC800016811F0010F18BF00F021B81E48006836
:100AD800EFF3098121E9F00F81611A480068816903
:100AE800B1E8F00F81F309884EF0040E7047022434
:100AF80084F31488BFF36F8F12480068016821F0EF
:100B080001010160816981F30988FFF7EDBF0E4893
:100B18000068EFF3098121E9F00F81610948006855
:100B2800016821F001010160816981F30988FFF7FB
:100B3800DBBF000014ED00E010E000E022ED00E073
:100B480004ED00E06C0000206800002080B500AFD4
:100B580040F67410C2F200004FF000014FF4A0728A
:100B680000F074F980BD00BF80B489B000AFF860B0
:100B7800B9603B601346FB7140F67413C2F2000380
:100B8800FB6140F67413C2F200037B614FF000036F
:100B9800FB7697F82830202B02D94FF00503D1E0D7
:100BA8004FF00003FB7653E0FB691B69002B38D13B
:100BB800FA68FB69DA61FB6A4FEA930303F1FF33D2
:100BC8004FEA8303BA68D218FB699A61FB791F2B35
:100BD80002D94FF00303B5E0FB7903F01F03DAB243
:100BE800FB695A73FB693A685A61FB69FA7E1A73A2
:100BF800FB694FF000029A60FB7903F57A731A4695
:100C0800FB695A60FB694FF00002DA73FB694FF029
:100C1800FF021A61FB691B6843F00102FB691A6055
:100C280019E0FA7E13464FEA83039B184FEAC30381
:100C380040F67412C2F200029B18FB61FB7E062B81
:100C480002D94FF002037DE0FB7E03F10103FB763E
:100C5800FB7E072BA8D93E4BFB61FB691B69002B68
:100C68004CD1FA6940F64963C0F60003D361FB69C9
:100C7800384A9A61FB694FF020025A73FA6940F6C4
:100C88008073C0F600035361FB694FF008021A73C2
:100C9800FB694FF000029A60FB695B7B03F57A738E
:100CA8001A46FB695A60FB694FF00002DA73FB6968
:100CB8004FF0FF021A61FA7E13464FEA83039B182E
:100CC8004FEAC30340F67412C2F200029A18FB6995
:100CD8001A62FB691B6AFB61FB691D4A5A62FB6960
:100CE8004FF000021A62FB691B6843F00102FB69BE
:100CF8001A6025E0FB691B6AFB6100E000BFFB6925
:100D08001B6A002BF6D1FB7E03F1FF3213464FEA34
:100D180083039B184FEAC30340F67412C2F2000221
:100D28009A18FB691A62FB691B6A7B617B69FA691D
:100D38005A62FB691B6AFB61FB694FF000021A6289
:100D48004FF00003184607F12407BD4680BC7047E2
:100D58008C0A00207009002080B487B000AF78604A
:100D68000B46FB70234B7B614FF00003FB744FF085
:100D78000003FB60FB78202B02D94FF0050333E01A
:100D88007B691B6A7B614FF00003FB747B695B69BD
:100D9800FB601AE07A68FB689A420CD17B6803F121
:100DA80001037B60FB6803F10103FB60FB7C03F13B
:100DB8000103FB7409E07B691B6A7B614FF0000348
:100DC800FB747B695B69FB6003E0FA78FB7C9A4201
:100DD800E0D2FB7C002B02D07B691B7B04E07B69A3
:100DE800002BF2D14FF00903184607F11C07BD4646
:100DF80080BC70478C0A002080B485B000AF0346E1
:100E0800FB710E4BFB60FB79092B02D14FF00003FD
:100E18000EE0FB681B7BFA799A4201D1FB6807E078
:100E2800FB681B6AFB60FB68002BF2D14FF00003E4
:100E3800184607F11407BD4680BC70478C0A00208D
:100E480080B483B000AF7860FEE700BFF0B48407D9
:100E5800034600F08E80541E002A00F08880E507C3
:100E6800CEB211D41A46671E02F8016B1346154616
:100E780092070FD0002C7AD003F8016B9A073C46F2
:100E88001D4607D0013CEDE7034603F8016B9A07BE
:100E98001D46F7D1032C52D9CEB246EA06270F2CAD
:100EA80047EA07432DD9A4F1100217460F2FC2F3C2
:100EB80000162B606B60AB60EB6005F1100216D971
:100EC8003EB1103F136053609360D36010320F2F10
:100ED8000DD9203F02F11006136053609360D36070
:100EE800136153619361D36120320F2FF1D8A4F1BC
:100EF800100222F00F0204F00F041032032C1544E4
:100F08001DD9271F3E462A46032E42F8043BC7F345
:100F180080070DD927B1043E032E42F8043B07D9B8
:100F28001746083E47F8043B53603A1D032EF7D88E
:100F3800231F23F00302131D04F00304ED18B4B1BA
:100F48002B46C9B203F8011B2C19ED436219A342C1
:100F580002F001050BD01DB103F8011BA34206D016
:100F68001A4602F8011B5970531CA342F8D1F0BC71
:100F78007047054614468DE75461736B49646C6588
:100F88005461736B547279005461736B5472793283
:100F98005461736B547279335461736B547279343E
:100FA8005461736B547279355461736B547279362A
:080FB8005461736B5472793728
:040000050800018965
:00000001FF
